{
	"contracts/StatusPolisAsuransi.sol": {
		"InsurancePolicy": {
			"abi": [
				{
					"inputs": [],
					"stateMutability": "nonpayable",
					"type": "constructor"
				},
				{
					"anonymous": false,
					"inputs": [
						{
							"indexed": false,
							"internalType": "uint256",
							"name": "policyId",
							"type": "uint256"
						},
						{
							"indexed": false,
							"internalType": "string",
							"name": "customerName",
							"type": "string"
						},
						{
							"indexed": false,
							"internalType": "address",
							"name": "customerAddress",
							"type": "address"
						}
					],
					"name": "PolicyCreated",
					"type": "event"
				},
				{
					"anonymous": false,
					"inputs": [
						{
							"indexed": false,
							"internalType": "uint256",
							"name": "policyId",
							"type": "uint256"
						},
						{
							"indexed": false,
							"internalType": "enum InsurancePolicy.PolicyStatus",
							"name": "status",
							"type": "uint8"
						}
					],
					"name": "StatusUpdated",
					"type": "event"
				},
				{
					"inputs": [
						{
							"internalType": "uint256",
							"name": "_policyId",
							"type": "uint256"
						}
					],
					"name": "checkPolicyStatus",
					"outputs": [
						{
							"internalType": "string",
							"name": "",
							"type": "string"
						}
					],
					"stateMutability": "view",
					"type": "function"
				},
				{
					"inputs": [
						{
							"internalType": "uint256",
							"name": "_policyId",
							"type": "uint256"
						},
						{
							"internalType": "string",
							"name": "_customerName",
							"type": "string"
						},
						{
							"internalType": "address",
							"name": "_customerAddress",
							"type": "address"
						},
						{
							"internalType": "uint256",
							"name": "_premium",
							"type": "uint256"
						}
					],
					"name": "createPolicy",
					"outputs": [],
					"stateMutability": "nonpayable",
					"type": "function"
				},
				{
					"inputs": [
						{
							"internalType": "uint256",
							"name": "_policyId",
							"type": "uint256"
						}
					],
					"name": "getPolicy",
					"outputs": [
						{
							"internalType": "uint256",
							"name": "",
							"type": "uint256"
						},
						{
							"internalType": "string",
							"name": "",
							"type": "string"
						},
						{
							"internalType": "address",
							"name": "",
							"type": "address"
						},
						{
							"internalType": "uint256",
							"name": "",
							"type": "uint256"
						},
						{
							"internalType": "string",
							"name": "",
							"type": "string"
						}
					],
					"stateMutability": "view",
					"type": "function"
				},
				{
					"inputs": [],
					"name": "owner",
					"outputs": [
						{
							"internalType": "address",
							"name": "",
							"type": "address"
						}
					],
					"stateMutability": "view",
					"type": "function"
				},
				{
					"inputs": [
						{
							"internalType": "uint256",
							"name": "",
							"type": "uint256"
						}
					],
					"name": "policies",
					"outputs": [
						{
							"internalType": "uint256",
							"name": "policyId",
							"type": "uint256"
						},
						{
							"internalType": "string",
							"name": "customerName",
							"type": "string"
						},
						{
							"internalType": "address",
							"name": "customerAddress",
							"type": "address"
						},
						{
							"internalType": "uint256",
							"name": "premium",
							"type": "uint256"
						},
						{
							"internalType": "enum InsurancePolicy.PolicyStatus",
							"name": "status",
							"type": "uint8"
						},
						{
							"internalType": "bool",
							"name": "exists",
							"type": "bool"
						}
					],
					"stateMutability": "view",
					"type": "function"
				},
				{
					"inputs": [
						{
							"internalType": "uint256",
							"name": "_policyId",
							"type": "uint256"
						}
					],
					"name": "setPolicyActive",
					"outputs": [],
					"stateMutability": "nonpayable",
					"type": "function"
				},
				{
					"inputs": [
						{
							"internalType": "uint256",
							"name": "_policyId",
							"type": "uint256"
						}
					],
					"name": "setPolicyClaimed",
					"outputs": [],
					"stateMutability": "nonpayable",
					"type": "function"
				}
			],
			"devdoc": {
				"kind": "dev",
				"methods": {},
				"version": 1
			},
			"evm": {
				"assembly": "    /* \"contracts/StatusPolisAsuransi.sol\":61:3366  contract InsurancePolicy {... */\n  mstore(0x40, 0x80)\n    /* \"contracts/StatusPolisAsuransi.sol\":170:221  constructor() {... */\n  callvalue\n  dup1\n  iszero\n  tag_1\n  jumpi\n  revert(0x00, 0x00)\ntag_1:\n  pop\n    /* \"contracts/StatusPolisAsuransi.sol\":203:213  msg.sender */\n  caller\n    /* \"contracts/StatusPolisAsuransi.sol\":195:200  owner */\n  0x00\n  0x00\n    /* \"contracts/StatusPolisAsuransi.sol\":195:213  owner = msg.sender */\n  0x0100\n  exp\n  dup2\n  sload\n  dup2\n  0xffffffffffffffffffffffffffffffffffffffff\n  mul\n  not\n  and\n  swap1\n  dup4\n  0xffffffffffffffffffffffffffffffffffffffff\n  and\n  mul\n  or\n  swap1\n  sstore\n  pop\n    /* \"contracts/StatusPolisAsuransi.sol\":61:3366  contract InsurancePolicy {... */\n  dataSize(sub_0)\n  dup1\n  dataOffset(sub_0)\n  0x00\n  codecopy\n  0x00\n  return\nstop\n\nsub_0: assembly {\n        /* \"contracts/StatusPolisAsuransi.sol\":61:3366  contract InsurancePolicy {... */\n      mstore(0x40, 0x80)\n      callvalue\n      dup1\n      iszero\n      tag_1\n      jumpi\n      revert(0x00, 0x00)\n    tag_1:\n      pop\n      jumpi(tag_2, lt(calldatasize, 0x04))\n      shr(0xe0, calldataload(0x00))\n      dup1\n      0x44ada305\n      gt\n      tag_10\n      jumpi\n      dup1\n      0x44ada305\n      eq\n      tag_6\n      jumpi\n      dup1\n      0x594b03ba\n      eq\n      tag_7\n      jumpi\n      dup1\n      0x8da5cb5b\n      eq\n      tag_8\n      jumpi\n      dup1\n      0xd3e89483\n      eq\n      tag_9\n      jumpi\n      jump(tag_2)\n    tag_10:\n      dup1\n      0x06f8cc0c\n      eq\n      tag_3\n      jumpi\n      dup1\n      0x2b07fce3\n      eq\n      tag_4\n      jumpi\n      dup1\n      0x32b7860d\n      eq\n      tag_5\n      jumpi\n    tag_2:\n      revert(0x00, 0x00)\n        /* \"contracts/StatusPolisAsuransi.sol\":1953:2250  function setPolicyClaimed(uint _policyId) public onlyOwner {... */\n    tag_3:\n      tag_11\n      0x04\n      dup1\n      calldatasize\n      sub\n      dup2\n      add\n      swap1\n      tag_12\n      swap2\n      swap1\n      tag_13\n      jump\t// in\n    tag_12:\n      tag_14\n      jump\t// in\n    tag_11:\n      stop\n        /* \"contracts/StatusPolisAsuransi.sol\":2668:3363  function getPolicy(uint _policyId)... */\n    tag_4:\n      tag_15\n      0x04\n      dup1\n      calldatasize\n      sub\n      dup2\n      add\n      swap1\n      tag_16\n      swap2\n      swap1\n      tag_13\n      jump\t// in\n    tag_16:\n      tag_17\n      jump\t// in\n    tag_15:\n      mload(0x40)\n      tag_18\n      swap6\n      swap5\n      swap4\n      swap3\n      swap2\n      swap1\n      tag_19\n      jump\t// in\n    tag_18:\n      mload(0x40)\n      dup1\n      swap2\n      sub\n      swap1\n      return\n        /* \"contracts/StatusPolisAsuransi.sol\":1604:1902  function setPolicyActive(uint _policyId) public onlyOwner {... */\n    tag_5:\n      tag_20\n      0x04\n      dup1\n      calldatasize\n      sub\n      dup2\n      add\n      swap1\n      tag_21\n      swap2\n      swap1\n      tag_13\n      jump\t// in\n    tag_21:\n      tag_22\n      jump\t// in\n    tag_20:\n      stop\n        /* \"contracts/StatusPolisAsuransi.sol\":2287:2631  function checkPolicyStatus(uint _policyId)... */\n    tag_6:\n      tag_23\n      0x04\n      dup1\n      calldatasize\n      sub\n      dup2\n      add\n      swap1\n      tag_24\n      swap2\n      swap1\n      tag_13\n      jump\t// in\n    tag_24:\n      tag_25\n      jump\t// in\n    tag_23:\n      mload(0x40)\n      tag_26\n      swap2\n      swap1\n      tag_27\n      jump\t// in\n    tag_26:\n      mload(0x40)\n      dup1\n      swap2\n      sub\n      swap1\n      return\n        /* \"contracts/StatusPolisAsuransi.sol\":903:1552  function createPolicy(... */\n    tag_7:\n      tag_28\n      0x04\n      dup1\n      calldatasize\n      sub\n      dup2\n      add\n      swap1\n      tag_29\n      swap2\n      swap1\n      tag_30\n      jump\t// in\n    tag_29:\n      tag_31\n      jump\t// in\n    tag_28:\n      stop\n        /* \"contracts/StatusPolisAsuransi.sol\":141:161  address public owner */\n    tag_8:\n      tag_32\n      tag_33\n      jump\t// in\n    tag_32:\n      mload(0x40)\n      tag_34\n      swap2\n      swap1\n      tag_35\n      jump\t// in\n    tag_34:\n      mload(0x40)\n      dup1\n      swap2\n      sub\n      swap1\n      return\n        /* \"contracts/StatusPolisAsuransi.sol\":616:655  mapping(uint => Policy) public policies */\n    tag_9:\n      tag_36\n      0x04\n      dup1\n      calldatasize\n      sub\n      dup2\n      add\n      swap1\n      tag_37\n      swap2\n      swap1\n      tag_13\n      jump\t// in\n    tag_37:\n      tag_38\n      jump\t// in\n    tag_36:\n      mload(0x40)\n      tag_39\n      swap7\n      swap6\n      swap5\n      swap4\n      swap3\n      swap2\n      swap1\n      tag_40\n      jump\t// in\n    tag_39:\n      mload(0x40)\n      dup1\n      swap2\n      sub\n      swap1\n      return\n        /* \"contracts/StatusPolisAsuransi.sol\":1953:2250  function setPolicyClaimed(uint _policyId) public onlyOwner {... */\n    tag_14:\n        /* \"contracts/StatusPolisAsuransi.sol\":283:288  owner */\n      0x00\n      0x00\n      swap1\n      sload\n      swap1\n      0x0100\n      exp\n      swap1\n      div\n      0xffffffffffffffffffffffffffffffffffffffff\n      and\n        /* \"contracts/StatusPolisAsuransi.sol\":269:288  msg.sender == owner */\n      0xffffffffffffffffffffffffffffffffffffffff\n      and\n        /* \"contracts/StatusPolisAsuransi.sol\":269:279  msg.sender */\n      caller\n        /* \"contracts/StatusPolisAsuransi.sol\":269:288  msg.sender == owner */\n      0xffffffffffffffffffffffffffffffffffffffff\n      and\n      eq\n        /* \"contracts/StatusPolisAsuransi.sol\":261:331  require(msg.sender == owner, \"Hanya perusahaan yang dapat mengakses.\") */\n      tag_42\n      jumpi\n      mload(0x40)\n      0x08c379a000000000000000000000000000000000000000000000000000000000\n      dup2\n      mstore\n      0x04\n      add\n      tag_43\n      swap1\n      tag_44\n      jump\t// in\n    tag_43:\n      mload(0x40)\n      dup1\n      swap2\n      sub\n      swap1\n      revert\n    tag_42:\n        /* \"contracts/StatusPolisAsuransi.sol\":2031:2039  policies */\n      0x01\n        /* \"contracts/StatusPolisAsuransi.sol\":2031:2050  policies[_policyId] */\n      0x00\n        /* \"contracts/StatusPolisAsuransi.sol\":2040:2049  _policyId */\n      dup3\n        /* \"contracts/StatusPolisAsuransi.sol\":2031:2050  policies[_policyId] */\n      dup2\n      mstore\n      0x20\n      add\n      swap1\n      dup2\n      mstore\n      0x20\n      add\n      0x00\n      keccak256\n        /* \"contracts/StatusPolisAsuransi.sol\":2031:2057  policies[_policyId].exists */\n      0x04\n      add\n      0x01\n      swap1\n      sload\n      swap1\n      0x0100\n      exp\n      swap1\n      div\n      0xff\n      and\n        /* \"contracts/StatusPolisAsuransi.sol\":2023:2085  require(policies[_policyId].exists, \"Policy tidak ditemukan.\") */\n      tag_46\n      jumpi\n      mload(0x40)\n      0x08c379a000000000000000000000000000000000000000000000000000000000\n      dup2\n      mstore\n      0x04\n      add\n      tag_47\n      swap1\n      tag_48\n      jump\t// in\n    tag_47:\n      mload(0x40)\n      dup1\n      swap2\n      sub\n      swap1\n      revert\n    tag_46:\n        /* \"contracts/StatusPolisAsuransi.sol\":2127:2144  PolicyStatus.Cair */\n      0x01\n        /* \"contracts/StatusPolisAsuransi.sol\":2098:2106  policies */\n      dup1\n        /* \"contracts/StatusPolisAsuransi.sol\":2098:2117  policies[_policyId] */\n      0x00\n        /* \"contracts/StatusPolisAsuransi.sol\":2107:2116  _policyId */\n      dup4\n        /* \"contracts/StatusPolisAsuransi.sol\":2098:2117  policies[_policyId] */\n      dup2\n      mstore\n      0x20\n      add\n      swap1\n      dup2\n      mstore\n      0x20\n      add\n      0x00\n      keccak256\n        /* \"contracts/StatusPolisAsuransi.sol\":2098:2124  policies[_policyId].status */\n      0x04\n      add\n      0x00\n        /* \"contracts/StatusPolisAsuransi.sol\":2098:2144  policies[_policyId].status = PolicyStatus.Cair */\n      0x0100\n      exp\n      dup2\n      sload\n      dup2\n      0xff\n      mul\n      not\n      and\n      swap1\n      dup4\n      0x01\n      dup2\n      gt\n      iszero\n      tag_49\n      jumpi\n      tag_50\n      tag_51\n      jump\t// in\n    tag_50:\n    tag_49:\n      mul\n      or\n      swap1\n      sstore\n      pop\n        /* \"contracts/StatusPolisAsuransi.sol\":2162:2242  StatusUpdated(... */\n      0x2da7b23ca63c1eb969eee5fae4acb98186abecf5358b0354a82a5183ebca6b2a\n        /* \"contracts/StatusPolisAsuransi.sol\":2190:2199  _policyId */\n      dup2\n        /* \"contracts/StatusPolisAsuransi.sol\":2214:2231  PolicyStatus.Cair */\n      0x01\n        /* \"contracts/StatusPolisAsuransi.sol\":2162:2242  StatusUpdated(... */\n      mload(0x40)\n      tag_52\n      swap3\n      swap2\n      swap1\n      tag_53\n      jump\t// in\n    tag_52:\n      mload(0x40)\n      dup1\n      swap2\n      sub\n      swap1\n      log1\n        /* \"contracts/StatusPolisAsuransi.sol\":1953:2250  function setPolicyClaimed(uint _policyId) public onlyOwner {... */\n      pop\n      jump\t// out\n        /* \"contracts/StatusPolisAsuransi.sol\":2668:3363  function getPolicy(uint _policyId)... */\n    tag_17:\n        /* \"contracts/StatusPolisAsuransi.sol\":2764:2768  uint */\n      0x00\n        /* \"contracts/StatusPolisAsuransi.sol\":2783:2796  string memory */\n      0x60\n        /* \"contracts/StatusPolisAsuransi.sol\":2811:2818  address */\n      0x00\n        /* \"contracts/StatusPolisAsuransi.sol\":2833:2837  uint */\n      0x00\n        /* \"contracts/StatusPolisAsuransi.sol\":2852:2865  string memory */\n      0x60\n        /* \"contracts/StatusPolisAsuransi.sol\":2901:2909  policies */\n      0x01\n        /* \"contracts/StatusPolisAsuransi.sol\":2901:2920  policies[_policyId] */\n      0x00\n        /* \"contracts/StatusPolisAsuransi.sol\":2910:2919  _policyId */\n      dup8\n        /* \"contracts/StatusPolisAsuransi.sol\":2901:2920  policies[_policyId] */\n      dup2\n      mstore\n      0x20\n      add\n      swap1\n      dup2\n      mstore\n      0x20\n      add\n      0x00\n      keccak256\n        /* \"contracts/StatusPolisAsuransi.sol\":2901:2927  policies[_policyId].exists */\n      0x04\n      add\n      0x01\n      swap1\n      sload\n      swap1\n      0x0100\n      exp\n      swap1\n      div\n      0xff\n      and\n        /* \"contracts/StatusPolisAsuransi.sol\":2893:2955  require(policies[_policyId].exists, \"Policy tidak ditemukan.\") */\n      tag_55\n      jumpi\n      mload(0x40)\n      0x08c379a000000000000000000000000000000000000000000000000000000000\n      dup2\n      mstore\n      0x04\n      add\n      tag_56\n      swap1\n      tag_48\n      jump\t// in\n    tag_56:\n      mload(0x40)\n      dup1\n      swap2\n      sub\n      swap1\n      revert\n    tag_55:\n        /* \"contracts/StatusPolisAsuransi.sol\":2968:2983  Policy memory p */\n      0x00\n        /* \"contracts/StatusPolisAsuransi.sol\":2986:2994  policies */\n      0x01\n        /* \"contracts/StatusPolisAsuransi.sol\":2986:3005  policies[_policyId] */\n      0x00\n        /* \"contracts/StatusPolisAsuransi.sol\":2995:3004  _policyId */\n      dup9\n        /* \"contracts/StatusPolisAsuransi.sol\":2986:3005  policies[_policyId] */\n      dup2\n      mstore\n      0x20\n      add\n      swap1\n      dup2\n      mstore\n      0x20\n      add\n      0x00\n      keccak256\n        /* \"contracts/StatusPolisAsuransi.sol\":2968:3005  Policy memory p = policies[_policyId] */\n      mload(0x40)\n      dup1\n      0xc0\n      add\n      0x40\n      mstore\n      swap1\n      dup2\n      0x00\n      dup3\n      add\n      sload\n      dup2\n      mstore\n      0x20\n      add\n      0x01\n      dup3\n      add\n      dup1\n      sload\n      tag_57\n      swap1\n      tag_58\n      jump\t// in\n    tag_57:\n      dup1\n      0x1f\n      add\n      0x20\n      dup1\n      swap2\n      div\n      mul\n      0x20\n      add\n      mload(0x40)\n      swap1\n      dup2\n      add\n      0x40\n      mstore\n      dup1\n      swap3\n      swap2\n      swap1\n      dup2\n      dup2\n      mstore\n      0x20\n      add\n      dup3\n      dup1\n      sload\n      tag_59\n      swap1\n      tag_58\n      jump\t// in\n    tag_59:\n      dup1\n      iszero\n      tag_60\n      jumpi\n      dup1\n      0x1f\n      lt\n      tag_61\n      jumpi\n      0x0100\n      dup1\n      dup4\n      sload\n      div\n      mul\n      dup4\n      mstore\n      swap2\n      0x20\n      add\n      swap2\n      jump(tag_60)\n    tag_61:\n      dup3\n      add\n      swap2\n      swap1\n      0x00\n      mstore\n      keccak256(0x00, 0x20)\n      swap1\n    tag_62:\n      dup2\n      sload\n      dup2\n      mstore\n      swap1\n      0x01\n      add\n      swap1\n      0x20\n      add\n      dup1\n      dup4\n      gt\n      tag_62\n      jumpi\n      dup3\n      swap1\n      sub\n      0x1f\n      and\n      dup3\n      add\n      swap2\n    tag_60:\n      pop\n      pop\n      pop\n      pop\n      pop\n      dup2\n      mstore\n      0x20\n      add\n      0x02\n      dup3\n      add\n      0x00\n      swap1\n      sload\n      swap1\n      0x0100\n      exp\n      swap1\n      div\n      0xffffffffffffffffffffffffffffffffffffffff\n      and\n      0xffffffffffffffffffffffffffffffffffffffff\n      and\n      0xffffffffffffffffffffffffffffffffffffffff\n      and\n      dup2\n      mstore\n      0x20\n      add\n      0x03\n      dup3\n      add\n      sload\n      dup2\n      mstore\n      0x20\n      add\n      0x04\n      dup3\n      add\n      0x00\n      swap1\n      sload\n      swap1\n      0x0100\n      exp\n      swap1\n      div\n      0xff\n      and\n      0x01\n      dup2\n      gt\n      iszero\n      tag_63\n      jumpi\n      tag_64\n      tag_51\n      jump\t// in\n    tag_64:\n    tag_63:\n      0x01\n      dup2\n      gt\n      iszero\n      tag_65\n      jumpi\n      tag_66\n      tag_51\n      jump\t// in\n    tag_66:\n    tag_65:\n      dup2\n      mstore\n      0x20\n      add\n      0x04\n      dup3\n      add\n      0x01\n      swap1\n      sload\n      swap1\n      0x0100\n      exp\n      swap1\n      div\n      0xff\n      and\n      iszero\n      iszero\n      iszero\n      iszero\n      dup2\n      mstore\n      pop\n      pop\n      swap1\n      pop\n        /* \"contracts/StatusPolisAsuransi.sol\":3018:3042  string memory statusText */\n      0x60\n        /* \"contracts/StatusPolisAsuransi.sol\":3071:3089  PolicyStatus.Aktif */\n      0x00\n        /* \"contracts/StatusPolisAsuransi.sol\":3059:3089  p.status == PolicyStatus.Aktif */\n      0x01\n      dup2\n      gt\n      iszero\n      tag_67\n      jumpi\n      tag_68\n      tag_51\n      jump\t// in\n    tag_68:\n    tag_67:\n        /* \"contracts/StatusPolisAsuransi.sol\":3059:3060  p */\n      dup3\n        /* \"contracts/StatusPolisAsuransi.sol\":3059:3067  p.status */\n      0x80\n      add\n      mload\n        /* \"contracts/StatusPolisAsuransi.sol\":3059:3089  p.status == PolicyStatus.Aktif */\n      0x01\n      dup2\n      gt\n      iszero\n      tag_69\n      jumpi\n      tag_70\n      tag_51\n      jump\t// in\n    tag_70:\n    tag_69:\n      sub\n        /* \"contracts/StatusPolisAsuransi.sol\":3055:3190  if (p.status == PolicyStatus.Aktif) {... */\n      tag_71\n      jumpi\n        /* \"contracts/StatusPolisAsuransi.sol\":3106:3126  statusText = \"Aktif\" */\n      mload(0x40)\n      dup1\n      0x40\n      add\n      0x40\n      mstore\n      dup1\n      0x05\n      dup2\n      mstore\n      0x20\n      add\n      0x416b746966000000000000000000000000000000000000000000000000000000\n      dup2\n      mstore\n      pop\n      swap1\n      pop\n        /* \"contracts/StatusPolisAsuransi.sol\":3055:3190  if (p.status == PolicyStatus.Aktif) {... */\n      jump(tag_72)\n    tag_71:\n        /* \"contracts/StatusPolisAsuransi.sol\":3159:3178  statusText = \"Cair\" */\n      mload(0x40)\n      dup1\n      0x40\n      add\n      0x40\n      mstore\n      dup1\n      0x04\n      dup2\n      mstore\n      0x20\n      add\n      0x4361697200000000000000000000000000000000000000000000000000000000\n      dup2\n      mstore\n      pop\n      swap1\n      pop\n        /* \"contracts/StatusPolisAsuransi.sol\":3055:3190  if (p.status == PolicyStatus.Aktif) {... */\n    tag_72:\n        /* \"contracts/StatusPolisAsuransi.sol\":3224:3225  p */\n      dup2\n        /* \"contracts/StatusPolisAsuransi.sol\":3224:3234  p.policyId */\n      0x00\n      add\n      mload\n        /* \"contracts/StatusPolisAsuransi.sol\":3249:3250  p */\n      dup3\n        /* \"contracts/StatusPolisAsuransi.sol\":3249:3263  p.customerName */\n      0x20\n      add\n      mload\n        /* \"contracts/StatusPolisAsuransi.sol\":3278:3279  p */\n      dup4\n        /* \"contracts/StatusPolisAsuransi.sol\":3278:3295  p.customerAddress */\n      0x40\n      add\n      mload\n        /* \"contracts/StatusPolisAsuransi.sol\":3310:3311  p */\n      dup5\n        /* \"contracts/StatusPolisAsuransi.sol\":3310:3319  p.premium */\n      0x60\n      add\n      mload\n        /* \"contracts/StatusPolisAsuransi.sol\":3334:3344  statusText */\n      dup5\n        /* \"contracts/StatusPolisAsuransi.sol\":3202:3355  return (... */\n      swap7\n      pop\n      swap7\n      pop\n      swap7\n      pop\n      swap7\n      pop\n      swap7\n      pop\n      pop\n      pop\n        /* \"contracts/StatusPolisAsuransi.sol\":2668:3363  function getPolicy(uint _policyId)... */\n      swap2\n      swap4\n      swap6\n      swap1\n      swap3\n      swap5\n      pop\n      jump\t// out\n        /* \"contracts/StatusPolisAsuransi.sol\":1604:1902  function setPolicyActive(uint _policyId) public onlyOwner {... */\n    tag_22:\n        /* \"contracts/StatusPolisAsuransi.sol\":283:288  owner */\n      0x00\n      0x00\n      swap1\n      sload\n      swap1\n      0x0100\n      exp\n      swap1\n      div\n      0xffffffffffffffffffffffffffffffffffffffff\n      and\n        /* \"contracts/StatusPolisAsuransi.sol\":269:288  msg.sender == owner */\n      0xffffffffffffffffffffffffffffffffffffffff\n      and\n        /* \"contracts/StatusPolisAsuransi.sol\":269:279  msg.sender */\n      caller\n        /* \"contracts/StatusPolisAsuransi.sol\":269:288  msg.sender == owner */\n      0xffffffffffffffffffffffffffffffffffffffff\n      and\n      eq\n        /* \"contracts/StatusPolisAsuransi.sol\":261:331  require(msg.sender == owner, \"Hanya perusahaan yang dapat mengakses.\") */\n      tag_74\n      jumpi\n      mload(0x40)\n      0x08c379a000000000000000000000000000000000000000000000000000000000\n      dup2\n      mstore\n      0x04\n      add\n      tag_75\n      swap1\n      tag_44\n      jump\t// in\n    tag_75:\n      mload(0x40)\n      dup1\n      swap2\n      sub\n      swap1\n      revert\n    tag_74:\n        /* \"contracts/StatusPolisAsuransi.sol\":1681:1689  policies */\n      0x01\n        /* \"contracts/StatusPolisAsuransi.sol\":1681:1700  policies[_policyId] */\n      0x00\n        /* \"contracts/StatusPolisAsuransi.sol\":1690:1699  _policyId */\n      dup3\n        /* \"contracts/StatusPolisAsuransi.sol\":1681:1700  policies[_policyId] */\n      dup2\n      mstore\n      0x20\n      add\n      swap1\n      dup2\n      mstore\n      0x20\n      add\n      0x00\n      keccak256\n        /* \"contracts/StatusPolisAsuransi.sol\":1681:1707  policies[_policyId].exists */\n      0x04\n      add\n      0x01\n      swap1\n      sload\n      swap1\n      0x0100\n      exp\n      swap1\n      div\n      0xff\n      and\n        /* \"contracts/StatusPolisAsuransi.sol\":1673:1735  require(policies[_policyId].exists, \"Policy tidak ditemukan.\") */\n      tag_77\n      jumpi\n      mload(0x40)\n      0x08c379a000000000000000000000000000000000000000000000000000000000\n      dup2\n      mstore\n      0x04\n      add\n      tag_78\n      swap1\n      tag_48\n      jump\t// in\n    tag_78:\n      mload(0x40)\n      dup1\n      swap2\n      sub\n      swap1\n      revert\n    tag_77:\n        /* \"contracts/StatusPolisAsuransi.sol\":1777:1795  PolicyStatus.Aktif */\n      0x00\n        /* \"contracts/StatusPolisAsuransi.sol\":1748:1756  policies */\n      0x01\n        /* \"contracts/StatusPolisAsuransi.sol\":1748:1767  policies[_policyId] */\n      0x00\n        /* \"contracts/StatusPolisAsuransi.sol\":1757:1766  _policyId */\n      dup4\n        /* \"contracts/StatusPolisAsuransi.sol\":1748:1767  policies[_policyId] */\n      dup2\n      mstore\n      0x20\n      add\n      swap1\n      dup2\n      mstore\n      0x20\n      add\n      0x00\n      keccak256\n        /* \"contracts/StatusPolisAsuransi.sol\":1748:1774  policies[_policyId].status */\n      0x04\n      add\n      0x00\n        /* \"contracts/StatusPolisAsuransi.sol\":1748:1795  policies[_policyId].status = PolicyStatus.Aktif */\n      0x0100\n      exp\n      dup2\n      sload\n      dup2\n      0xff\n      mul\n      not\n      and\n      swap1\n      dup4\n      0x01\n      dup2\n      gt\n      iszero\n      tag_79\n      jumpi\n      tag_80\n      tag_51\n      jump\t// in\n    tag_80:\n    tag_79:\n      mul\n      or\n      swap1\n      sstore\n      pop\n        /* \"contracts/StatusPolisAsuransi.sol\":1813:1894  StatusUpdated(... */\n      0x2da7b23ca63c1eb969eee5fae4acb98186abecf5358b0354a82a5183ebca6b2a\n        /* \"contracts/StatusPolisAsuransi.sol\":1841:1850  _policyId */\n      dup2\n        /* \"contracts/StatusPolisAsuransi.sol\":1865:1883  PolicyStatus.Aktif */\n      0x00\n        /* \"contracts/StatusPolisAsuransi.sol\":1813:1894  StatusUpdated(... */\n      mload(0x40)\n      tag_81\n      swap3\n      swap2\n      swap1\n      tag_53\n      jump\t// in\n    tag_81:\n      mload(0x40)\n      dup1\n      swap2\n      sub\n      swap1\n      log1\n        /* \"contracts/StatusPolisAsuransi.sol\":1604:1902  function setPolicyActive(uint _policyId) public onlyOwner {... */\n      pop\n      jump\t// out\n        /* \"contracts/StatusPolisAsuransi.sol\":2287:2631  function checkPolicyStatus(uint _policyId)... */\n    tag_25:\n        /* \"contracts/StatusPolisAsuransi.sol\":2377:2390  string memory */\n      0x60\n        /* \"contracts/StatusPolisAsuransi.sol\":2416:2424  policies */\n      0x01\n        /* \"contracts/StatusPolisAsuransi.sol\":2416:2435  policies[_policyId] */\n      0x00\n        /* \"contracts/StatusPolisAsuransi.sol\":2425:2434  _policyId */\n      dup4\n        /* \"contracts/StatusPolisAsuransi.sol\":2416:2435  policies[_policyId] */\n      dup2\n      mstore\n      0x20\n      add\n      swap1\n      dup2\n      mstore\n      0x20\n      add\n      0x00\n      keccak256\n        /* \"contracts/StatusPolisAsuransi.sol\":2416:2442  policies[_policyId].exists */\n      0x04\n      add\n      0x01\n      swap1\n      sload\n      swap1\n      0x0100\n      exp\n      swap1\n      div\n      0xff\n      and\n        /* \"contracts/StatusPolisAsuransi.sol\":2408:2470  require(policies[_policyId].exists, \"Policy tidak ditemukan.\") */\n      tag_83\n      jumpi\n      mload(0x40)\n      0x08c379a000000000000000000000000000000000000000000000000000000000\n      dup2\n      mstore\n      0x04\n      add\n      tag_84\n      swap1\n      tag_48\n      jump\t// in\n    tag_84:\n      mload(0x40)\n      dup1\n      swap2\n      sub\n      swap1\n      revert\n    tag_83:\n        /* \"contracts/StatusPolisAsuransi.sol\":2517:2535  PolicyStatus.Aktif */\n      0x00\n        /* \"contracts/StatusPolisAsuransi.sol\":2487:2535  policies[_policyId].status == PolicyStatus.Aktif */\n      0x01\n      dup2\n      gt\n      iszero\n      tag_85\n      jumpi\n      tag_86\n      tag_51\n      jump\t// in\n    tag_86:\n    tag_85:\n        /* \"contracts/StatusPolisAsuransi.sol\":2487:2495  policies */\n      0x01\n        /* \"contracts/StatusPolisAsuransi.sol\":2487:2506  policies[_policyId] */\n      0x00\n        /* \"contracts/StatusPolisAsuransi.sol\":2496:2505  _policyId */\n      dup5\n        /* \"contracts/StatusPolisAsuransi.sol\":2487:2506  policies[_policyId] */\n      dup2\n      mstore\n      0x20\n      add\n      swap1\n      dup2\n      mstore\n      0x20\n      add\n      0x00\n      keccak256\n        /* \"contracts/StatusPolisAsuransi.sol\":2487:2513  policies[_policyId].status */\n      0x04\n      add\n      0x00\n      swap1\n      sload\n      swap1\n      0x0100\n      exp\n      swap1\n      div\n      0xff\n      and\n        /* \"contracts/StatusPolisAsuransi.sol\":2487:2535  policies[_policyId].status == PolicyStatus.Aktif */\n      0x01\n      dup2\n      gt\n      iszero\n      tag_87\n      jumpi\n      tag_88\n      tag_51\n      jump\t// in\n    tag_88:\n    tag_87:\n      sub\n        /* \"contracts/StatusPolisAsuransi.sol\":2483:2624  if (policies[_policyId].status == PolicyStatus.Aktif) {... */\n      tag_89\n      jumpi\n        /* \"contracts/StatusPolisAsuransi.sol\":2552:2566  return \"Aktif\" */\n      mload(0x40)\n      dup1\n      0x40\n      add\n      0x40\n      mstore\n      dup1\n      0x05\n      dup2\n      mstore\n      0x20\n      add\n      0x416b746966000000000000000000000000000000000000000000000000000000\n      dup2\n      mstore\n      pop\n      swap1\n      pop\n      jump(tag_82)\n        /* \"contracts/StatusPolisAsuransi.sol\":2483:2624  if (policies[_policyId].status == PolicyStatus.Aktif) {... */\n    tag_89:\n        /* \"contracts/StatusPolisAsuransi.sol\":2599:2612  return \"Cair\" */\n      mload(0x40)\n      dup1\n      0x40\n      add\n      0x40\n      mstore\n      dup1\n      0x04\n      dup2\n      mstore\n      0x20\n      add\n      0x4361697200000000000000000000000000000000000000000000000000000000\n      dup2\n      mstore\n      pop\n      swap1\n      pop\n        /* \"contracts/StatusPolisAsuransi.sol\":2287:2631  function checkPolicyStatus(uint _policyId)... */\n    tag_82:\n      swap2\n      swap1\n      pop\n      jump\t// out\n        /* \"contracts/StatusPolisAsuransi.sol\":903:1552  function createPolicy(... */\n    tag_31:\n        /* \"contracts/StatusPolisAsuransi.sol\":283:288  owner */\n      0x00\n      0x00\n      swap1\n      sload\n      swap1\n      0x0100\n      exp\n      swap1\n      div\n      0xffffffffffffffffffffffffffffffffffffffff\n      and\n        /* \"contracts/StatusPolisAsuransi.sol\":269:288  msg.sender == owner */\n      0xffffffffffffffffffffffffffffffffffffffff\n      and\n        /* \"contracts/StatusPolisAsuransi.sol\":269:279  msg.sender */\n      caller\n        /* \"contracts/StatusPolisAsuransi.sol\":269:288  msg.sender == owner */\n      0xffffffffffffffffffffffffffffffffffffffff\n      and\n      eq\n        /* \"contracts/StatusPolisAsuransi.sol\":261:331  require(msg.sender == owner, \"Hanya perusahaan yang dapat mengakses.\") */\n      tag_92\n      jumpi\n      mload(0x40)\n      0x08c379a000000000000000000000000000000000000000000000000000000000\n      dup2\n      mstore\n      0x04\n      add\n      tag_93\n      swap1\n      tag_44\n      jump\t// in\n    tag_93:\n      mload(0x40)\n      dup1\n      swap2\n      sub\n      swap1\n      revert\n    tag_92:\n        /* \"contracts/StatusPolisAsuransi.sol\":1093:1101  policies */\n      0x01\n        /* \"contracts/StatusPolisAsuransi.sol\":1093:1112  policies[_policyId] */\n      0x00\n        /* \"contracts/StatusPolisAsuransi.sol\":1102:1111  _policyId */\n      dup6\n        /* \"contracts/StatusPolisAsuransi.sol\":1093:1112  policies[_policyId] */\n      dup2\n      mstore\n      0x20\n      add\n      swap1\n      dup2\n      mstore\n      0x20\n      add\n      0x00\n      keccak256\n        /* \"contracts/StatusPolisAsuransi.sol\":1093:1119  policies[_policyId].exists */\n      0x04\n      add\n      0x01\n      swap1\n      sload\n      swap1\n      0x0100\n      exp\n      swap1\n      div\n      0xff\n      and\n        /* \"contracts/StatusPolisAsuransi.sol\":1092:1119  !policies[_policyId].exists */\n      iszero\n        /* \"contracts/StatusPolisAsuransi.sol\":1084:1141  require(!policies[_policyId].exists, \"Policy sudah ada.\") */\n      tag_95\n      jumpi\n      mload(0x40)\n      0x08c379a000000000000000000000000000000000000000000000000000000000\n      dup2\n      mstore\n      0x04\n      add\n      tag_96\n      swap1\n      tag_97\n      jump\t// in\n    tag_96:\n      mload(0x40)\n      dup1\n      swap2\n      sub\n      swap1\n      revert\n    tag_95:\n        /* \"contracts/StatusPolisAsuransi.sol\":1176:1419  Policy({... */\n      mload(0x40)\n      dup1\n      0xc0\n      add\n      0x40\n      mstore\n      dup1\n        /* \"contracts/StatusPolisAsuransi.sol\":1208:1217  _policyId */\n      dup6\n        /* \"contracts/StatusPolisAsuransi.sol\":1176:1419  Policy({... */\n      dup2\n      mstore\n      0x20\n      add\n        /* \"contracts/StatusPolisAsuransi.sol\":1246:1259  _customerName */\n      dup5\n        /* \"contracts/StatusPolisAsuransi.sol\":1176:1419  Policy({... */\n      dup2\n      mstore\n      0x20\n      add\n        /* \"contracts/StatusPolisAsuransi.sol\":1291:1307  _customerAddress */\n      dup4\n        /* \"contracts/StatusPolisAsuransi.sol\":1176:1419  Policy({... */\n      0xffffffffffffffffffffffffffffffffffffffff\n      and\n      dup2\n      mstore\n      0x20\n      add\n        /* \"contracts/StatusPolisAsuransi.sol\":1331:1339  _premium */\n      dup3\n        /* \"contracts/StatusPolisAsuransi.sol\":1176:1419  Policy({... */\n      dup2\n      mstore\n      0x20\n      add\n        /* \"contracts/StatusPolisAsuransi.sol\":1362:1380  PolicyStatus.Aktif */\n      0x00\n        /* \"contracts/StatusPolisAsuransi.sol\":1176:1419  Policy({... */\n      0x01\n      dup2\n      gt\n      iszero\n      tag_98\n      jumpi\n      tag_99\n      tag_51\n      jump\t// in\n    tag_99:\n    tag_98:\n      dup2\n      mstore\n      0x20\n      add\n        /* \"contracts/StatusPolisAsuransi.sol\":1403:1407  true */\n      0x01\n        /* \"contracts/StatusPolisAsuransi.sol\":1176:1419  Policy({... */\n      iszero\n      iszero\n      dup2\n      mstore\n      pop\n        /* \"contracts/StatusPolisAsuransi.sol\":1154:1162  policies */\n      0x01\n        /* \"contracts/StatusPolisAsuransi.sol\":1154:1173  policies[_policyId] */\n      0x00\n        /* \"contracts/StatusPolisAsuransi.sol\":1163:1172  _policyId */\n      dup7\n        /* \"contracts/StatusPolisAsuransi.sol\":1154:1173  policies[_policyId] */\n      dup2\n      mstore\n      0x20\n      add\n      swap1\n      dup2\n      mstore\n      0x20\n      add\n      0x00\n      keccak256\n        /* \"contracts/StatusPolisAsuransi.sol\":1154:1419  policies[_policyId] = Policy({... */\n      0x00\n      dup3\n      add\n      mload\n      dup2\n      0x00\n      add\n      sstore\n      0x20\n      dup3\n      add\n      mload\n      dup2\n      0x01\n      add\n      swap1\n      dup2\n      tag_100\n      swap2\n      swap1\n      tag_101\n      jump\t// in\n    tag_100:\n      pop\n      0x40\n      dup3\n      add\n      mload\n      dup2\n      0x02\n      add\n      exp(0x0100, 0x00)\n      dup2\n      sload\n      dup2\n      0xffffffffffffffffffffffffffffffffffffffff\n      mul\n      not\n      and\n      swap1\n      dup4\n      0xffffffffffffffffffffffffffffffffffffffff\n      and\n      mul\n      or\n      swap1\n      sstore\n      pop\n      0x60\n      dup3\n      add\n      mload\n      dup2\n      0x03\n      add\n      sstore\n      0x80\n      dup3\n      add\n      mload\n      dup2\n      0x04\n      add\n      exp(0x0100, 0x00)\n      dup2\n      sload\n      dup2\n      0xff\n      mul\n      not\n      and\n      swap1\n      dup4\n      0x01\n      dup2\n      gt\n      iszero\n      tag_102\n      jumpi\n      tag_103\n      tag_51\n      jump\t// in\n    tag_103:\n    tag_102:\n      mul\n      or\n      swap1\n      sstore\n      pop\n      0xa0\n      dup3\n      add\n      mload\n      dup2\n      0x04\n      add\n      exp(0x0100, 0x01)\n      dup2\n      sload\n      dup2\n      0xff\n      mul\n      not\n      and\n      swap1\n      dup4\n      iszero\n      iszero\n      mul\n      or\n      swap1\n      sstore\n      pop\n      swap1\n      pop\n      pop\n        /* \"contracts/StatusPolisAsuransi.sol\":1437:1544  PolicyCreated(... */\n      0xe060903a71989416db77650c9585adbae8f4fc8633a778a547d25e3c78789f4c\n        /* \"contracts/StatusPolisAsuransi.sol\":1465:1474  _policyId */\n      dup5\n        /* \"contracts/StatusPolisAsuransi.sol\":1489:1502  _customerName */\n      dup5\n        /* \"contracts/StatusPolisAsuransi.sol\":1517:1533  _customerAddress */\n      dup5\n        /* \"contracts/StatusPolisAsuransi.sol\":1437:1544  PolicyCreated(... */\n      mload(0x40)\n      tag_104\n      swap4\n      swap3\n      swap2\n      swap1\n      tag_105\n      jump\t// in\n    tag_104:\n      mload(0x40)\n      dup1\n      swap2\n      sub\n      swap1\n      log1\n        /* \"contracts/StatusPolisAsuransi.sol\":903:1552  function createPolicy(... */\n      pop\n      pop\n      pop\n      pop\n      jump\t// out\n        /* \"contracts/StatusPolisAsuransi.sol\":141:161  address public owner */\n    tag_33:\n      0x00\n      0x00\n      swap1\n      sload\n      swap1\n      0x0100\n      exp\n      swap1\n      div\n      0xffffffffffffffffffffffffffffffffffffffff\n      and\n      dup2\n      jump\t// out\n        /* \"contracts/StatusPolisAsuransi.sol\":616:655  mapping(uint => Policy) public policies */\n    tag_38:\n      mstore(0x20, 0x01)\n      dup1\n      0x00\n      mstore\n      keccak256(0x00, 0x40)\n      0x00\n      swap2\n      pop\n      swap1\n      pop\n      dup1\n      0x00\n      add\n      sload\n      swap1\n      dup1\n      0x01\n      add\n      dup1\n      sload\n      tag_106\n      swap1\n      tag_58\n      jump\t// in\n    tag_106:\n      dup1\n      0x1f\n      add\n      0x20\n      dup1\n      swap2\n      div\n      mul\n      0x20\n      add\n      mload(0x40)\n      swap1\n      dup2\n      add\n      0x40\n      mstore\n      dup1\n      swap3\n      swap2\n      swap1\n      dup2\n      dup2\n      mstore\n      0x20\n      add\n      dup3\n      dup1\n      sload\n      tag_107\n      swap1\n      tag_58\n      jump\t// in\n    tag_107:\n      dup1\n      iszero\n      tag_108\n      jumpi\n      dup1\n      0x1f\n      lt\n      tag_109\n      jumpi\n      0x0100\n      dup1\n      dup4\n      sload\n      div\n      mul\n      dup4\n      mstore\n      swap2\n      0x20\n      add\n      swap2\n      jump(tag_108)\n    tag_109:\n      dup3\n      add\n      swap2\n      swap1\n      0x00\n      mstore\n      keccak256(0x00, 0x20)\n      swap1\n    tag_110:\n      dup2\n      sload\n      dup2\n      mstore\n      swap1\n      0x01\n      add\n      swap1\n      0x20\n      add\n      dup1\n      dup4\n      gt\n      tag_110\n      jumpi\n      dup3\n      swap1\n      sub\n      0x1f\n      and\n      dup3\n      add\n      swap2\n    tag_108:\n      pop\n      pop\n      pop\n      pop\n      pop\n      swap1\n      dup1\n      0x02\n      add\n      0x00\n      swap1\n      sload\n      swap1\n      0x0100\n      exp\n      swap1\n      div\n      0xffffffffffffffffffffffffffffffffffffffff\n      and\n      swap1\n      dup1\n      0x03\n      add\n      sload\n      swap1\n      dup1\n      0x04\n      add\n      0x00\n      swap1\n      sload\n      swap1\n      0x0100\n      exp\n      swap1\n      div\n      0xff\n      and\n      swap1\n      dup1\n      0x04\n      add\n      0x01\n      swap1\n      sload\n      swap1\n      0x0100\n      exp\n      swap1\n      div\n      0xff\n      and\n      swap1\n      pop\n      dup7\n      jump\t// out\n        /* \"#utility.yul\":7:82   */\n    tag_111:\n        /* \"#utility.yul\":40:46   */\n      0x00\n        /* \"#utility.yul\":73:75   */\n      0x40\n        /* \"#utility.yul\":67:76   */\n      mload\n        /* \"#utility.yul\":57:76   */\n      swap1\n      pop\n        /* \"#utility.yul\":7:82   */\n      swap1\n      jump\t// out\n        /* \"#utility.yul\":88:205   */\n    tag_112:\n        /* \"#utility.yul\":197:198   */\n      0x00\n        /* \"#utility.yul\":194:195   */\n      0x00\n        /* \"#utility.yul\":187:199   */\n      revert\n        /* \"#utility.yul\":211:328   */\n    tag_113:\n        /* \"#utility.yul\":320:321   */\n      0x00\n        /* \"#utility.yul\":317:318   */\n      0x00\n        /* \"#utility.yul\":310:322   */\n      revert\n        /* \"#utility.yul\":334:411   */\n    tag_114:\n        /* \"#utility.yul\":371:378   */\n      0x00\n        /* \"#utility.yul\":400:405   */\n      dup2\n        /* \"#utility.yul\":389:405   */\n      swap1\n      pop\n        /* \"#utility.yul\":334:411   */\n      swap2\n      swap1\n      pop\n      jump\t// out\n        /* \"#utility.yul\":417:539   */\n    tag_115:\n        /* \"#utility.yul\":490:514   */\n      tag_171\n        /* \"#utility.yul\":508:513   */\n      dup2\n        /* \"#utility.yul\":490:514   */\n      tag_114\n      jump\t// in\n    tag_171:\n        /* \"#utility.yul\":483:488   */\n      dup2\n        /* \"#utility.yul\":480:515   */\n      eq\n        /* \"#utility.yul\":470:533   */\n      tag_172\n      jumpi\n        /* \"#utility.yul\":529:530   */\n      0x00\n        /* \"#utility.yul\":526:527   */\n      0x00\n        /* \"#utility.yul\":519:531   */\n      revert\n        /* \"#utility.yul\":470:533   */\n    tag_172:\n        /* \"#utility.yul\":417:539   */\n      pop\n      jump\t// out\n        /* \"#utility.yul\":545:684   */\n    tag_116:\n        /* \"#utility.yul\":591:596   */\n      0x00\n        /* \"#utility.yul\":629:635   */\n      dup2\n        /* \"#utility.yul\":616:636   */\n      calldataload\n        /* \"#utility.yul\":607:636   */\n      swap1\n      pop\n        /* \"#utility.yul\":645:678   */\n      tag_174\n        /* \"#utility.yul\":672:677   */\n      dup2\n        /* \"#utility.yul\":645:678   */\n      tag_115\n      jump\t// in\n    tag_174:\n        /* \"#utility.yul\":545:684   */\n      swap3\n      swap2\n      pop\n      pop\n      jump\t// out\n        /* \"#utility.yul\":690:1019   */\n    tag_13:\n        /* \"#utility.yul\":749:755   */\n      0x00\n        /* \"#utility.yul\":798:800   */\n      0x20\n        /* \"#utility.yul\":786:795   */\n      dup3\n        /* \"#utility.yul\":777:784   */\n      dup5\n        /* \"#utility.yul\":773:796   */\n      sub\n        /* \"#utility.yul\":769:801   */\n      slt\n        /* \"#utility.yul\":766:885   */\n      iszero\n      tag_176\n      jumpi\n        /* \"#utility.yul\":804:883   */\n      tag_177\n      tag_112\n      jump\t// in\n    tag_177:\n        /* \"#utility.yul\":766:885   */\n    tag_176:\n        /* \"#utility.yul\":924:925   */\n      0x00\n        /* \"#utility.yul\":949:1002   */\n      tag_178\n        /* \"#utility.yul\":994:1001   */\n      dup5\n        /* \"#utility.yul\":985:991   */\n      dup3\n        /* \"#utility.yul\":974:983   */\n      dup6\n        /* \"#utility.yul\":970:992   */\n      add\n        /* \"#utility.yul\":949:1002   */\n      tag_116\n      jump\t// in\n    tag_178:\n        /* \"#utility.yul\":939:1002   */\n      swap2\n      pop\n        /* \"#utility.yul\":895:1012   */\n      pop\n        /* \"#utility.yul\":690:1019   */\n      swap3\n      swap2\n      pop\n      pop\n      jump\t// out\n        /* \"#utility.yul\":1025:1143   */\n    tag_117:\n        /* \"#utility.yul\":1112:1136   */\n      tag_180\n        /* \"#utility.yul\":1130:1135   */\n      dup2\n        /* \"#utility.yul\":1112:1136   */\n      tag_114\n      jump\t// in\n    tag_180:\n        /* \"#utility.yul\":1107:1110   */\n      dup3\n        /* \"#utility.yul\":1100:1137   */\n      mstore\n        /* \"#utility.yul\":1025:1143   */\n      pop\n      pop\n      jump\t// out\n        /* \"#utility.yul\":1149:1248   */\n    tag_118:\n        /* \"#utility.yul\":1201:1207   */\n      0x00\n        /* \"#utility.yul\":1235:1240   */\n      dup2\n        /* \"#utility.yul\":1229:1241   */\n      mload\n        /* \"#utility.yul\":1219:1241   */\n      swap1\n      pop\n        /* \"#utility.yul\":1149:1248   */\n      swap2\n      swap1\n      pop\n      jump\t// out\n        /* \"#utility.yul\":1254:1423   */\n    tag_119:\n        /* \"#utility.yul\":1338:1349   */\n      0x00\n        /* \"#utility.yul\":1372:1378   */\n      dup3\n        /* \"#utility.yul\":1367:1370   */\n      dup3\n        /* \"#utility.yul\":1360:1379   */\n      mstore\n        /* \"#utility.yul\":1412:1416   */\n      0x20\n        /* \"#utility.yul\":1407:1410   */\n      dup3\n        /* \"#utility.yul\":1403:1417   */\n      add\n        /* \"#utility.yul\":1388:1417   */\n      swap1\n      pop\n        /* \"#utility.yul\":1254:1423   */\n      swap3\n      swap2\n      pop\n      pop\n      jump\t// out\n        /* \"#utility.yul\":1429:1568   */\n    tag_120:\n        /* \"#utility.yul\":1518:1524   */\n      dup3\n        /* \"#utility.yul\":1513:1516   */\n      dup2\n        /* \"#utility.yul\":1508:1511   */\n      dup4\n        /* \"#utility.yul\":1502:1525   */\n      mcopy\n        /* \"#utility.yul\":1559:1560   */\n      0x00\n        /* \"#utility.yul\":1550:1556   */\n      dup4\n        /* \"#utility.yul\":1545:1548   */\n      dup4\n        /* \"#utility.yul\":1541:1557   */\n      add\n        /* \"#utility.yul\":1534:1561   */\n      mstore\n        /* \"#utility.yul\":1429:1568   */\n      pop\n      pop\n      pop\n      jump\t// out\n        /* \"#utility.yul\":1574:1676   */\n    tag_121:\n        /* \"#utility.yul\":1615:1621   */\n      0x00\n        /* \"#utility.yul\":1666:1668   */\n      0x1f\n        /* \"#utility.yul\":1662:1669   */\n      not\n        /* \"#utility.yul\":1657:1659   */\n      0x1f\n        /* \"#utility.yul\":1650:1655   */\n      dup4\n        /* \"#utility.yul\":1646:1660   */\n      add\n        /* \"#utility.yul\":1642:1670   */\n      and\n        /* \"#utility.yul\":1632:1670   */\n      swap1\n      pop\n        /* \"#utility.yul\":1574:1676   */\n      swap2\n      swap1\n      pop\n      jump\t// out\n        /* \"#utility.yul\":1682:2059   */\n    tag_122:\n        /* \"#utility.yul\":1770:1773   */\n      0x00\n        /* \"#utility.yul\":1798:1837   */\n      tag_186\n        /* \"#utility.yul\":1831:1836   */\n      dup3\n        /* \"#utility.yul\":1798:1837   */\n      tag_118\n      jump\t// in\n    tag_186:\n        /* \"#utility.yul\":1853:1924   */\n      tag_187\n        /* \"#utility.yul\":1917:1923   */\n      dup2\n        /* \"#utility.yul\":1912:1915   */\n      dup6\n        /* \"#utility.yul\":1853:1924   */\n      tag_119\n      jump\t// in\n    tag_187:\n        /* \"#utility.yul\":1846:1924   */\n      swap4\n      pop\n        /* \"#utility.yul\":1933:1998   */\n      tag_188\n        /* \"#utility.yul\":1991:1997   */\n      dup2\n        /* \"#utility.yul\":1986:1989   */\n      dup6\n        /* \"#utility.yul\":1979:1983   */\n      0x20\n        /* \"#utility.yul\":1972:1977   */\n      dup7\n        /* \"#utility.yul\":1968:1984   */\n      add\n        /* \"#utility.yul\":1933:1998   */\n      tag_120\n      jump\t// in\n    tag_188:\n        /* \"#utility.yul\":2023:2052   */\n      tag_189\n        /* \"#utility.yul\":2045:2051   */\n      dup2\n        /* \"#utility.yul\":2023:2052   */\n      tag_121\n      jump\t// in\n    tag_189:\n        /* \"#utility.yul\":2018:2021   */\n      dup5\n        /* \"#utility.yul\":2014:2053   */\n      add\n        /* \"#utility.yul\":2007:2053   */\n      swap2\n      pop\n        /* \"#utility.yul\":1774:2059   */\n      pop\n        /* \"#utility.yul\":1682:2059   */\n      swap3\n      swap2\n      pop\n      pop\n      jump\t// out\n        /* \"#utility.yul\":2065:2191   */\n    tag_123:\n        /* \"#utility.yul\":2102:2109   */\n      0x00\n        /* \"#utility.yul\":2142:2184   */\n      0xffffffffffffffffffffffffffffffffffffffff\n        /* \"#utility.yul\":2135:2140   */\n      dup3\n        /* \"#utility.yul\":2131:2185   */\n      and\n        /* \"#utility.yul\":2120:2185   */\n      swap1\n      pop\n        /* \"#utility.yul\":2065:2191   */\n      swap2\n      swap1\n      pop\n      jump\t// out\n        /* \"#utility.yul\":2197:2293   */\n    tag_124:\n        /* \"#utility.yul\":2234:2241   */\n      0x00\n        /* \"#utility.yul\":2263:2287   */\n      tag_192\n        /* \"#utility.yul\":2281:2286   */\n      dup3\n        /* \"#utility.yul\":2263:2287   */\n      tag_123\n      jump\t// in\n    tag_192:\n        /* \"#utility.yul\":2252:2287   */\n      swap1\n      pop\n        /* \"#utility.yul\":2197:2293   */\n      swap2\n      swap1\n      pop\n      jump\t// out\n        /* \"#utility.yul\":2299:2417   */\n    tag_125:\n        /* \"#utility.yul\":2386:2410   */\n      tag_194\n        /* \"#utility.yul\":2404:2409   */\n      dup2\n        /* \"#utility.yul\":2386:2410   */\n      tag_124\n      jump\t// in\n    tag_194:\n        /* \"#utility.yul\":2381:2384   */\n      dup3\n        /* \"#utility.yul\":2374:2411   */\n      mstore\n        /* \"#utility.yul\":2299:2417   */\n      pop\n      pop\n      jump\t// out\n        /* \"#utility.yul\":2423:3269   */\n    tag_19:\n        /* \"#utility.yul\":2668:2672   */\n      0x00\n        /* \"#utility.yul\":2706:2709   */\n      0xa0\n        /* \"#utility.yul\":2695:2704   */\n      dup3\n        /* \"#utility.yul\":2691:2710   */\n      add\n        /* \"#utility.yul\":2683:2710   */\n      swap1\n      pop\n        /* \"#utility.yul\":2720:2791   */\n      tag_196\n        /* \"#utility.yul\":2788:2789   */\n      0x00\n        /* \"#utility.yul\":2777:2786   */\n      dup4\n        /* \"#utility.yul\":2773:2790   */\n      add\n        /* \"#utility.yul\":2764:2770   */\n      dup9\n        /* \"#utility.yul\":2720:2791   */\n      tag_117\n      jump\t// in\n    tag_196:\n        /* \"#utility.yul\":2838:2847   */\n      dup2\n        /* \"#utility.yul\":2832:2836   */\n      dup2\n        /* \"#utility.yul\":2828:2848   */\n      sub\n        /* \"#utility.yul\":2823:2825   */\n      0x20\n        /* \"#utility.yul\":2812:2821   */\n      dup4\n        /* \"#utility.yul\":2808:2826   */\n      add\n        /* \"#utility.yul\":2801:2849   */\n      mstore\n        /* \"#utility.yul\":2866:2944   */\n      tag_197\n        /* \"#utility.yul\":2939:2943   */\n      dup2\n        /* \"#utility.yul\":2930:2936   */\n      dup8\n        /* \"#utility.yul\":2866:2944   */\n      tag_122\n      jump\t// in\n    tag_197:\n        /* \"#utility.yul\":2858:2944   */\n      swap1\n      pop\n        /* \"#utility.yul\":2954:3026   */\n      tag_198\n        /* \"#utility.yul\":3022:3024   */\n      0x40\n        /* \"#utility.yul\":3011:3020   */\n      dup4\n        /* \"#utility.yul\":3007:3025   */\n      add\n        /* \"#utility.yul\":2998:3004   */\n      dup7\n        /* \"#utility.yul\":2954:3026   */\n      tag_125\n      jump\t// in\n    tag_198:\n        /* \"#utility.yul\":3036:3108   */\n      tag_199\n        /* \"#utility.yul\":3104:3106   */\n      0x60\n        /* \"#utility.yul\":3093:3102   */\n      dup4\n        /* \"#utility.yul\":3089:3107   */\n      add\n        /* \"#utility.yul\":3080:3086   */\n      dup6\n        /* \"#utility.yul\":3036:3108   */\n      tag_117\n      jump\t// in\n    tag_199:\n        /* \"#utility.yul\":3156:3165   */\n      dup2\n        /* \"#utility.yul\":3150:3154   */\n      dup2\n        /* \"#utility.yul\":3146:3166   */\n      sub\n        /* \"#utility.yul\":3140:3143   */\n      0x80\n        /* \"#utility.yul\":3129:3138   */\n      dup4\n        /* \"#utility.yul\":3125:3144   */\n      add\n        /* \"#utility.yul\":3118:3167   */\n      mstore\n        /* \"#utility.yul\":3184:3262   */\n      tag_200\n        /* \"#utility.yul\":3257:3261   */\n      dup2\n        /* \"#utility.yul\":3248:3254   */\n      dup5\n        /* \"#utility.yul\":3184:3262   */\n      tag_122\n      jump\t// in\n    tag_200:\n        /* \"#utility.yul\":3176:3262   */\n      swap1\n      pop\n        /* \"#utility.yul\":2423:3269   */\n      swap7\n      swap6\n      pop\n      pop\n      pop\n      pop\n      pop\n      pop\n      jump\t// out\n        /* \"#utility.yul\":3275:3588   */\n    tag_27:\n        /* \"#utility.yul\":3388:3392   */\n      0x00\n        /* \"#utility.yul\":3426:3428   */\n      0x20\n        /* \"#utility.yul\":3415:3424   */\n      dup3\n        /* \"#utility.yul\":3411:3429   */\n      add\n        /* \"#utility.yul\":3403:3429   */\n      swap1\n      pop\n        /* \"#utility.yul\":3475:3484   */\n      dup2\n        /* \"#utility.yul\":3469:3473   */\n      dup2\n        /* \"#utility.yul\":3465:3485   */\n      sub\n        /* \"#utility.yul\":3461:3462   */\n      0x00\n        /* \"#utility.yul\":3450:3459   */\n      dup4\n        /* \"#utility.yul\":3446:3463   */\n      add\n        /* \"#utility.yul\":3439:3486   */\n      mstore\n        /* \"#utility.yul\":3503:3581   */\n      tag_202\n        /* \"#utility.yul\":3576:3580   */\n      dup2\n        /* \"#utility.yul\":3567:3573   */\n      dup5\n        /* \"#utility.yul\":3503:3581   */\n      tag_122\n      jump\t// in\n    tag_202:\n        /* \"#utility.yul\":3495:3581   */\n      swap1\n      pop\n        /* \"#utility.yul\":3275:3588   */\n      swap3\n      swap2\n      pop\n      pop\n      jump\t// out\n        /* \"#utility.yul\":3594:3711   */\n    tag_126:\n        /* \"#utility.yul\":3703:3704   */\n      0x00\n        /* \"#utility.yul\":3700:3701   */\n      0x00\n        /* \"#utility.yul\":3693:3705   */\n      revert\n        /* \"#utility.yul\":3717:3834   */\n    tag_127:\n        /* \"#utility.yul\":3826:3827   */\n      0x00\n        /* \"#utility.yul\":3823:3824   */\n      0x00\n        /* \"#utility.yul\":3816:3828   */\n      revert\n        /* \"#utility.yul\":3840:4020   */\n    tag_128:\n        /* \"#utility.yul\":3888:3965   */\n      0x4e487b7100000000000000000000000000000000000000000000000000000000\n        /* \"#utility.yul\":3885:3886   */\n      0x00\n        /* \"#utility.yul\":3878:3966   */\n      mstore\n        /* \"#utility.yul\":3985:3989   */\n      0x41\n        /* \"#utility.yul\":3982:3983   */\n      0x04\n        /* \"#utility.yul\":3975:3990   */\n      mstore\n        /* \"#utility.yul\":4009:4013   */\n      0x24\n        /* \"#utility.yul\":4006:4007   */\n      0x00\n        /* \"#utility.yul\":3999:4014   */\n      revert\n        /* \"#utility.yul\":4026:4307   */\n    tag_129:\n        /* \"#utility.yul\":4109:4136   */\n      tag_207\n        /* \"#utility.yul\":4131:4135   */\n      dup3\n        /* \"#utility.yul\":4109:4136   */\n      tag_121\n      jump\t// in\n    tag_207:\n        /* \"#utility.yul\":4101:4107   */\n      dup2\n        /* \"#utility.yul\":4097:4137   */\n      add\n        /* \"#utility.yul\":4239:4245   */\n      dup2\n        /* \"#utility.yul\":4227:4237   */\n      dup2\n        /* \"#utility.yul\":4224:4246   */\n      lt\n        /* \"#utility.yul\":4203:4221   */\n      0xffffffffffffffff\n        /* \"#utility.yul\":4191:4201   */\n      dup3\n        /* \"#utility.yul\":4188:4222   */\n      gt\n        /* \"#utility.yul\":4185:4247   */\n      or\n        /* \"#utility.yul\":4182:4270   */\n      iszero\n      tag_208\n      jumpi\n        /* \"#utility.yul\":4250:4268   */\n      tag_209\n      tag_128\n      jump\t// in\n    tag_209:\n        /* \"#utility.yul\":4182:4270   */\n    tag_208:\n        /* \"#utility.yul\":4290:4300   */\n      dup1\n        /* \"#utility.yul\":4286:4288   */\n      0x40\n        /* \"#utility.yul\":4279:4301   */\n      mstore\n        /* \"#utility.yul\":4069:4307   */\n      pop\n        /* \"#utility.yul\":4026:4307   */\n      pop\n      pop\n      jump\t// out\n        /* \"#utility.yul\":4313:4442   */\n    tag_130:\n        /* \"#utility.yul\":4347:4353   */\n      0x00\n        /* \"#utility.yul\":4374:4394   */\n      tag_211\n      tag_111\n      jump\t// in\n    tag_211:\n        /* \"#utility.yul\":4364:4394   */\n      swap1\n      pop\n        /* \"#utility.yul\":4403:4436   */\n      tag_212\n        /* \"#utility.yul\":4431:4435   */\n      dup3\n        /* \"#utility.yul\":4423:4429   */\n      dup3\n        /* \"#utility.yul\":4403:4436   */\n      tag_129\n      jump\t// in\n    tag_212:\n        /* \"#utility.yul\":4313:4442   */\n      swap2\n      swap1\n      pop\n      jump\t// out\n        /* \"#utility.yul\":4448:4756   */\n    tag_131:\n        /* \"#utility.yul\":4510:4514   */\n      0x00\n        /* \"#utility.yul\":4600:4618   */\n      0xffffffffffffffff\n        /* \"#utility.yul\":4592:4598   */\n      dup3\n        /* \"#utility.yul\":4589:4619   */\n      gt\n        /* \"#utility.yul\":4586:4642   */\n      iszero\n      tag_214\n      jumpi\n        /* \"#utility.yul\":4622:4640   */\n      tag_215\n      tag_128\n      jump\t// in\n    tag_215:\n        /* \"#utility.yul\":4586:4642   */\n    tag_214:\n        /* \"#utility.yul\":4660:4689   */\n      tag_216\n        /* \"#utility.yul\":4682:4688   */\n      dup3\n        /* \"#utility.yul\":4660:4689   */\n      tag_121\n      jump\t// in\n    tag_216:\n        /* \"#utility.yul\":4652:4689   */\n      swap1\n      pop\n        /* \"#utility.yul\":4744:4748   */\n      0x20\n        /* \"#utility.yul\":4738:4742   */\n      dup2\n        /* \"#utility.yul\":4734:4749   */\n      add\n        /* \"#utility.yul\":4726:4749   */\n      swap1\n      pop\n        /* \"#utility.yul\":4448:4756   */\n      swap2\n      swap1\n      pop\n      jump\t// out\n        /* \"#utility.yul\":4762:4910   */\n    tag_132:\n        /* \"#utility.yul\":4860:4866   */\n      dup3\n        /* \"#utility.yul\":4855:4858   */\n      dup2\n        /* \"#utility.yul\":4850:4853   */\n      dup4\n        /* \"#utility.yul\":4837:4867   */\n      calldatacopy\n        /* \"#utility.yul\":4901:4902   */\n      0x00\n        /* \"#utility.yul\":4892:4898   */\n      dup4\n        /* \"#utility.yul\":4887:4890   */\n      dup4\n        /* \"#utility.yul\":4883:4899   */\n      add\n        /* \"#utility.yul\":4876:4903   */\n      mstore\n        /* \"#utility.yul\":4762:4910   */\n      pop\n      pop\n      pop\n      jump\t// out\n        /* \"#utility.yul\":4916:5341   */\n    tag_133:\n        /* \"#utility.yul\":4994:4999   */\n      0x00\n        /* \"#utility.yul\":5019:5085   */\n      tag_219\n        /* \"#utility.yul\":5035:5084   */\n      tag_220\n        /* \"#utility.yul\":5077:5083   */\n      dup5\n        /* \"#utility.yul\":5035:5084   */\n      tag_131\n      jump\t// in\n    tag_220:\n        /* \"#utility.yul\":5019:5085   */\n      tag_130\n      jump\t// in\n    tag_219:\n        /* \"#utility.yul\":5010:5085   */\n      swap1\n      pop\n        /* \"#utility.yul\":5108:5114   */\n      dup3\n        /* \"#utility.yul\":5101:5106   */\n      dup2\n        /* \"#utility.yul\":5094:5115   */\n      mstore\n        /* \"#utility.yul\":5146:5150   */\n      0x20\n        /* \"#utility.yul\":5139:5144   */\n      dup2\n        /* \"#utility.yul\":5135:5151   */\n      add\n        /* \"#utility.yul\":5184:5187   */\n      dup5\n        /* \"#utility.yul\":5175:5181   */\n      dup5\n        /* \"#utility.yul\":5170:5173   */\n      dup5\n        /* \"#utility.yul\":5166:5182   */\n      add\n        /* \"#utility.yul\":5163:5188   */\n      gt\n        /* \"#utility.yul\":5160:5272   */\n      iszero\n      tag_221\n      jumpi\n        /* \"#utility.yul\":5191:5270   */\n      tag_222\n      tag_127\n      jump\t// in\n    tag_222:\n        /* \"#utility.yul\":5160:5272   */\n    tag_221:\n        /* \"#utility.yul\":5281:5335   */\n      tag_223\n        /* \"#utility.yul\":5328:5334   */\n      dup5\n        /* \"#utility.yul\":5323:5326   */\n      dup3\n        /* \"#utility.yul\":5318:5321   */\n      dup6\n        /* \"#utility.yul\":5281:5335   */\n      tag_132\n      jump\t// in\n    tag_223:\n        /* \"#utility.yul\":5000:5341   */\n      pop\n        /* \"#utility.yul\":4916:5341   */\n      swap4\n      swap3\n      pop\n      pop\n      pop\n      jump\t// out\n        /* \"#utility.yul\":5361:5701   */\n    tag_134:\n        /* \"#utility.yul\":5417:5422   */\n      0x00\n        /* \"#utility.yul\":5466:5469   */\n      dup3\n        /* \"#utility.yul\":5459:5463   */\n      0x1f\n        /* \"#utility.yul\":5451:5457   */\n      dup4\n        /* \"#utility.yul\":5447:5464   */\n      add\n        /* \"#utility.yul\":5443:5470   */\n      slt\n        /* \"#utility.yul\":5433:5555   */\n      tag_225\n      jumpi\n        /* \"#utility.yul\":5474:5553   */\n      tag_226\n      tag_126\n      jump\t// in\n    tag_226:\n        /* \"#utility.yul\":5433:5555   */\n    tag_225:\n        /* \"#utility.yul\":5591:5597   */\n      dup2\n        /* \"#utility.yul\":5578:5598   */\n      calldataload\n        /* \"#utility.yul\":5616:5695   */\n      tag_227\n        /* \"#utility.yul\":5691:5694   */\n      dup5\n        /* \"#utility.yul\":5683:5689   */\n      dup3\n        /* \"#utility.yul\":5676:5680   */\n      0x20\n        /* \"#utility.yul\":5668:5674   */\n      dup7\n        /* \"#utility.yul\":5664:5681   */\n      add\n        /* \"#utility.yul\":5616:5695   */\n      tag_133\n      jump\t// in\n    tag_227:\n        /* \"#utility.yul\":5607:5695   */\n      swap2\n      pop\n        /* \"#utility.yul\":5423:5701   */\n      pop\n        /* \"#utility.yul\":5361:5701   */\n      swap3\n      swap2\n      pop\n      pop\n      jump\t// out\n        /* \"#utility.yul\":5707:5829   */\n    tag_135:\n        /* \"#utility.yul\":5780:5804   */\n      tag_229\n        /* \"#utility.yul\":5798:5803   */\n      dup2\n        /* \"#utility.yul\":5780:5804   */\n      tag_124\n      jump\t// in\n    tag_229:\n        /* \"#utility.yul\":5773:5778   */\n      dup2\n        /* \"#utility.yul\":5770:5805   */\n      eq\n        /* \"#utility.yul\":5760:5823   */\n      tag_230\n      jumpi\n        /* \"#utility.yul\":5819:5820   */\n      0x00\n        /* \"#utility.yul\":5816:5817   */\n      0x00\n        /* \"#utility.yul\":5809:5821   */\n      revert\n        /* \"#utility.yul\":5760:5823   */\n    tag_230:\n        /* \"#utility.yul\":5707:5829   */\n      pop\n      jump\t// out\n        /* \"#utility.yul\":5835:5974   */\n    tag_136:\n        /* \"#utility.yul\":5881:5886   */\n      0x00\n        /* \"#utility.yul\":5919:5925   */\n      dup2\n        /* \"#utility.yul\":5906:5926   */\n      calldataload\n        /* \"#utility.yul\":5897:5926   */\n      swap1\n      pop\n        /* \"#utility.yul\":5935:5968   */\n      tag_232\n        /* \"#utility.yul\":5962:5967   */\n      dup2\n        /* \"#utility.yul\":5935:5968   */\n      tag_135\n      jump\t// in\n    tag_232:\n        /* \"#utility.yul\":5835:5974   */\n      swap3\n      swap2\n      pop\n      pop\n      jump\t// out\n        /* \"#utility.yul\":5980:6925   */\n    tag_30:\n        /* \"#utility.yul\":6076:6082   */\n      0x00\n        /* \"#utility.yul\":6084:6090   */\n      0x00\n        /* \"#utility.yul\":6092:6098   */\n      0x00\n        /* \"#utility.yul\":6100:6106   */\n      0x00\n        /* \"#utility.yul\":6149:6152   */\n      0x80\n        /* \"#utility.yul\":6137:6146   */\n      dup6\n        /* \"#utility.yul\":6128:6135   */\n      dup8\n        /* \"#utility.yul\":6124:6147   */\n      sub\n        /* \"#utility.yul\":6120:6153   */\n      slt\n        /* \"#utility.yul\":6117:6237   */\n      iszero\n      tag_234\n      jumpi\n        /* \"#utility.yul\":6156:6235   */\n      tag_235\n      tag_112\n      jump\t// in\n    tag_235:\n        /* \"#utility.yul\":6117:6237   */\n    tag_234:\n        /* \"#utility.yul\":6276:6277   */\n      0x00\n        /* \"#utility.yul\":6301:6354   */\n      tag_236\n        /* \"#utility.yul\":6346:6353   */\n      dup8\n        /* \"#utility.yul\":6337:6343   */\n      dup3\n        /* \"#utility.yul\":6326:6335   */\n      dup9\n        /* \"#utility.yul\":6322:6344   */\n      add\n        /* \"#utility.yul\":6301:6354   */\n      tag_116\n      jump\t// in\n    tag_236:\n        /* \"#utility.yul\":6291:6354   */\n      swap5\n      pop\n        /* \"#utility.yul\":6247:6364   */\n      pop\n        /* \"#utility.yul\":6431:6433   */\n      0x20\n        /* \"#utility.yul\":6420:6429   */\n      dup6\n        /* \"#utility.yul\":6416:6434   */\n      add\n        /* \"#utility.yul\":6403:6435   */\n      calldataload\n        /* \"#utility.yul\":6462:6480   */\n      0xffffffffffffffff\n        /* \"#utility.yul\":6454:6460   */\n      dup2\n        /* \"#utility.yul\":6451:6481   */\n      gt\n        /* \"#utility.yul\":6448:6565   */\n      iszero\n      tag_237\n      jumpi\n        /* \"#utility.yul\":6484:6563   */\n      tag_238\n      tag_113\n      jump\t// in\n    tag_238:\n        /* \"#utility.yul\":6448:6565   */\n    tag_237:\n        /* \"#utility.yul\":6589:6652   */\n      tag_239\n        /* \"#utility.yul\":6644:6651   */\n      dup8\n        /* \"#utility.yul\":6635:6641   */\n      dup3\n        /* \"#utility.yul\":6624:6633   */\n      dup9\n        /* \"#utility.yul\":6620:6642   */\n      add\n        /* \"#utility.yul\":6589:6652   */\n      tag_134\n      jump\t// in\n    tag_239:\n        /* \"#utility.yul\":6579:6652   */\n      swap4\n      pop\n        /* \"#utility.yul\":6374:6662   */\n      pop\n        /* \"#utility.yul\":6701:6703   */\n      0x40\n        /* \"#utility.yul\":6727:6780   */\n      tag_240\n        /* \"#utility.yul\":6772:6779   */\n      dup8\n        /* \"#utility.yul\":6763:6769   */\n      dup3\n        /* \"#utility.yul\":6752:6761   */\n      dup9\n        /* \"#utility.yul\":6748:6770   */\n      add\n        /* \"#utility.yul\":6727:6780   */\n      tag_136\n      jump\t// in\n    tag_240:\n        /* \"#utility.yul\":6717:6780   */\n      swap3\n      pop\n        /* \"#utility.yul\":6672:6790   */\n      pop\n        /* \"#utility.yul\":6829:6831   */\n      0x60\n        /* \"#utility.yul\":6855:6908   */\n      tag_241\n        /* \"#utility.yul\":6900:6907   */\n      dup8\n        /* \"#utility.yul\":6891:6897   */\n      dup3\n        /* \"#utility.yul\":6880:6889   */\n      dup9\n        /* \"#utility.yul\":6876:6898   */\n      add\n        /* \"#utility.yul\":6855:6908   */\n      tag_116\n      jump\t// in\n    tag_241:\n        /* \"#utility.yul\":6845:6908   */\n      swap2\n      pop\n        /* \"#utility.yul\":6800:6918   */\n      pop\n        /* \"#utility.yul\":5980:6925   */\n      swap3\n      swap6\n      swap2\n      swap5\n      pop\n      swap3\n      pop\n      jump\t// out\n        /* \"#utility.yul\":6931:7153   */\n    tag_35:\n        /* \"#utility.yul\":7024:7028   */\n      0x00\n        /* \"#utility.yul\":7062:7064   */\n      0x20\n        /* \"#utility.yul\":7051:7060   */\n      dup3\n        /* \"#utility.yul\":7047:7065   */\n      add\n        /* \"#utility.yul\":7039:7065   */\n      swap1\n      pop\n        /* \"#utility.yul\":7075:7146   */\n      tag_243\n        /* \"#utility.yul\":7143:7144   */\n      0x00\n        /* \"#utility.yul\":7132:7141   */\n      dup4\n        /* \"#utility.yul\":7128:7145   */\n      add\n        /* \"#utility.yul\":7119:7125   */\n      dup5\n        /* \"#utility.yul\":7075:7146   */\n      tag_125\n      jump\t// in\n    tag_243:\n        /* \"#utility.yul\":6931:7153   */\n      swap3\n      swap2\n      pop\n      pop\n      jump\t// out\n        /* \"#utility.yul\":7159:7339   */\n    tag_51:\n        /* \"#utility.yul\":7207:7284   */\n      0x4e487b7100000000000000000000000000000000000000000000000000000000\n        /* \"#utility.yul\":7204:7205   */\n      0x00\n        /* \"#utility.yul\":7197:7285   */\n      mstore\n        /* \"#utility.yul\":7304:7308   */\n      0x21\n        /* \"#utility.yul\":7301:7302   */\n      0x04\n        /* \"#utility.yul\":7294:7309   */\n      mstore\n        /* \"#utility.yul\":7328:7332   */\n      0x24\n        /* \"#utility.yul\":7325:7326   */\n      0x00\n        /* \"#utility.yul\":7318:7333   */\n      revert\n        /* \"#utility.yul\":7345:7465   */\n    tag_137:\n        /* \"#utility.yul\":7433:7434   */\n      0x02\n        /* \"#utility.yul\":7426:7431   */\n      dup2\n        /* \"#utility.yul\":7423:7435   */\n      lt\n        /* \"#utility.yul\":7413:7459   */\n      tag_246\n      jumpi\n        /* \"#utility.yul\":7439:7457   */\n      tag_247\n      tag_51\n      jump\t// in\n    tag_247:\n        /* \"#utility.yul\":7413:7459   */\n    tag_246:\n        /* \"#utility.yul\":7345:7465   */\n      pop\n      jump\t// out\n        /* \"#utility.yul\":7471:7612   */\n    tag_138:\n        /* \"#utility.yul\":7523:7530   */\n      0x00\n        /* \"#utility.yul\":7552:7557   */\n      dup2\n        /* \"#utility.yul\":7541:7557   */\n      swap1\n      pop\n        /* \"#utility.yul\":7558:7606   */\n      tag_249\n        /* \"#utility.yul\":7600:7605   */\n      dup3\n        /* \"#utility.yul\":7558:7606   */\n      tag_137\n      jump\t// in\n    tag_249:\n        /* \"#utility.yul\":7471:7612   */\n      swap2\n      swap1\n      pop\n      jump\t// out\n        /* \"#utility.yul\":7618:7759   */\n    tag_139:\n        /* \"#utility.yul\":7681:7690   */\n      0x00\n        /* \"#utility.yul\":7714:7753   */\n      tag_251\n        /* \"#utility.yul\":7747:7752   */\n      dup3\n        /* \"#utility.yul\":7714:7753   */\n      tag_138\n      jump\t// in\n    tag_251:\n        /* \"#utility.yul\":7701:7753   */\n      swap1\n      pop\n        /* \"#utility.yul\":7618:7759   */\n      swap2\n      swap1\n      pop\n      jump\t// out\n        /* \"#utility.yul\":7765:7922   */\n    tag_140:\n        /* \"#utility.yul\":7865:7915   */\n      tag_253\n        /* \"#utility.yul\":7909:7914   */\n      dup2\n        /* \"#utility.yul\":7865:7915   */\n      tag_139\n      jump\t// in\n    tag_253:\n        /* \"#utility.yul\":7860:7863   */\n      dup3\n        /* \"#utility.yul\":7853:7916   */\n      mstore\n        /* \"#utility.yul\":7765:7922   */\n      pop\n      pop\n      jump\t// out\n        /* \"#utility.yul\":7928:8018   */\n    tag_141:\n        /* \"#utility.yul\":7962:7969   */\n      0x00\n        /* \"#utility.yul\":8005:8010   */\n      dup2\n        /* \"#utility.yul\":7998:8011   */\n      iszero\n        /* \"#utility.yul\":7991:8012   */\n      iszero\n        /* \"#utility.yul\":7980:8012   */\n      swap1\n      pop\n        /* \"#utility.yul\":7928:8018   */\n      swap2\n      swap1\n      pop\n      jump\t// out\n        /* \"#utility.yul\":8024:8133   */\n    tag_142:\n        /* \"#utility.yul\":8105:8126   */\n      tag_256\n        /* \"#utility.yul\":8120:8125   */\n      dup2\n        /* \"#utility.yul\":8105:8126   */\n      tag_141\n      jump\t// in\n    tag_256:\n        /* \"#utility.yul\":8100:8103   */\n      dup3\n        /* \"#utility.yul\":8093:8127   */\n      mstore\n        /* \"#utility.yul\":8024:8133   */\n      pop\n      pop\n      jump\t// out\n        /* \"#utility.yul\":8139:9019   */\n    tag_40:\n        /* \"#utility.yul\":8399:8403   */\n      0x00\n        /* \"#utility.yul\":8437:8440   */\n      0xc0\n        /* \"#utility.yul\":8426:8435   */\n      dup3\n        /* \"#utility.yul\":8422:8441   */\n      add\n        /* \"#utility.yul\":8414:8441   */\n      swap1\n      pop\n        /* \"#utility.yul\":8451:8522   */\n      tag_258\n        /* \"#utility.yul\":8519:8520   */\n      0x00\n        /* \"#utility.yul\":8508:8517   */\n      dup4\n        /* \"#utility.yul\":8504:8521   */\n      add\n        /* \"#utility.yul\":8495:8501   */\n      dup10\n        /* \"#utility.yul\":8451:8522   */\n      tag_117\n      jump\t// in\n    tag_258:\n        /* \"#utility.yul\":8569:8578   */\n      dup2\n        /* \"#utility.yul\":8563:8567   */\n      dup2\n        /* \"#utility.yul\":8559:8579   */\n      sub\n        /* \"#utility.yul\":8554:8556   */\n      0x20\n        /* \"#utility.yul\":8543:8552   */\n      dup4\n        /* \"#utility.yul\":8539:8557   */\n      add\n        /* \"#utility.yul\":8532:8580   */\n      mstore\n        /* \"#utility.yul\":8597:8675   */\n      tag_259\n        /* \"#utility.yul\":8670:8674   */\n      dup2\n        /* \"#utility.yul\":8661:8667   */\n      dup9\n        /* \"#utility.yul\":8597:8675   */\n      tag_122\n      jump\t// in\n    tag_259:\n        /* \"#utility.yul\":8589:8675   */\n      swap1\n      pop\n        /* \"#utility.yul\":8685:8757   */\n      tag_260\n        /* \"#utility.yul\":8753:8755   */\n      0x40\n        /* \"#utility.yul\":8742:8751   */\n      dup4\n        /* \"#utility.yul\":8738:8756   */\n      add\n        /* \"#utility.yul\":8729:8735   */\n      dup8\n        /* \"#utility.yul\":8685:8757   */\n      tag_125\n      jump\t// in\n    tag_260:\n        /* \"#utility.yul\":8767:8839   */\n      tag_261\n        /* \"#utility.yul\":8835:8837   */\n      0x60\n        /* \"#utility.yul\":8824:8833   */\n      dup4\n        /* \"#utility.yul\":8820:8838   */\n      add\n        /* \"#utility.yul\":8811:8817   */\n      dup7\n        /* \"#utility.yul\":8767:8839   */\n      tag_117\n      jump\t// in\n    tag_261:\n        /* \"#utility.yul\":8849:8935   */\n      tag_262\n        /* \"#utility.yul\":8930:8933   */\n      0x80\n        /* \"#utility.yul\":8919:8928   */\n      dup4\n        /* \"#utility.yul\":8915:8934   */\n      add\n        /* \"#utility.yul\":8906:8912   */\n      dup6\n        /* \"#utility.yul\":8849:8935   */\n      tag_140\n      jump\t// in\n    tag_262:\n        /* \"#utility.yul\":8945:9012   */\n      tag_263\n        /* \"#utility.yul\":9007:9010   */\n      0xa0\n        /* \"#utility.yul\":8996:9005   */\n      dup4\n        /* \"#utility.yul\":8992:9011   */\n      add\n        /* \"#utility.yul\":8983:8989   */\n      dup5\n        /* \"#utility.yul\":8945:9012   */\n      tag_142\n      jump\t// in\n    tag_263:\n        /* \"#utility.yul\":8139:9019   */\n      swap8\n      swap7\n      pop\n      pop\n      pop\n      pop\n      pop\n      pop\n      pop\n      jump\t// out\n        /* \"#utility.yul\":9025:9250   */\n    tag_143:\n        /* \"#utility.yul\":9165:9199   */\n      0x48616e7961207065727573616861616e2079616e67206461706174206d656e67\n        /* \"#utility.yul\":9161:9162   */\n      0x00\n        /* \"#utility.yul\":9153:9159   */\n      dup3\n        /* \"#utility.yul\":9149:9163   */\n      add\n        /* \"#utility.yul\":9142:9200   */\n      mstore\n        /* \"#utility.yul\":9234:9242   */\n      0x616b7365732e0000000000000000000000000000000000000000000000000000\n        /* \"#utility.yul\":9229:9231   */\n      0x20\n        /* \"#utility.yul\":9221:9227   */\n      dup3\n        /* \"#utility.yul\":9217:9232   */\n      add\n        /* \"#utility.yul\":9210:9243   */\n      mstore\n        /* \"#utility.yul\":9025:9250   */\n      pop\n      jump\t// out\n        /* \"#utility.yul\":9256:9622   */\n    tag_144:\n        /* \"#utility.yul\":9398:9401   */\n      0x00\n        /* \"#utility.yul\":9419:9486   */\n      tag_266\n        /* \"#utility.yul\":9483:9485   */\n      0x26\n        /* \"#utility.yul\":9478:9481   */\n      dup4\n        /* \"#utility.yul\":9419:9486   */\n      tag_119\n      jump\t// in\n    tag_266:\n        /* \"#utility.yul\":9412:9486   */\n      swap2\n      pop\n        /* \"#utility.yul\":9495:9588   */\n      tag_267\n        /* \"#utility.yul\":9584:9587   */\n      dup3\n        /* \"#utility.yul\":9495:9588   */\n      tag_143\n      jump\t// in\n    tag_267:\n        /* \"#utility.yul\":9613:9615   */\n      0x40\n        /* \"#utility.yul\":9608:9611   */\n      dup3\n        /* \"#utility.yul\":9604:9616   */\n      add\n        /* \"#utility.yul\":9597:9616   */\n      swap1\n      pop\n        /* \"#utility.yul\":9256:9622   */\n      swap2\n      swap1\n      pop\n      jump\t// out\n        /* \"#utility.yul\":9628:10047   */\n    tag_44:\n        /* \"#utility.yul\":9794:9798   */\n      0x00\n        /* \"#utility.yul\":9832:9834   */\n      0x20\n        /* \"#utility.yul\":9821:9830   */\n      dup3\n        /* \"#utility.yul\":9817:9835   */\n      add\n        /* \"#utility.yul\":9809:9835   */\n      swap1\n      pop\n        /* \"#utility.yul\":9881:9890   */\n      dup2\n        /* \"#utility.yul\":9875:9879   */\n      dup2\n        /* \"#utility.yul\":9871:9891   */\n      sub\n        /* \"#utility.yul\":9867:9868   */\n      0x00\n        /* \"#utility.yul\":9856:9865   */\n      dup4\n        /* \"#utility.yul\":9852:9869   */\n      add\n        /* \"#utility.yul\":9845:9892   */\n      mstore\n        /* \"#utility.yul\":9909:10040   */\n      tag_269\n        /* \"#utility.yul\":10035:10039   */\n      dup2\n        /* \"#utility.yul\":9909:10040   */\n      tag_144\n      jump\t// in\n    tag_269:\n        /* \"#utility.yul\":9901:10040   */\n      swap1\n      pop\n        /* \"#utility.yul\":9628:10047   */\n      swap2\n      swap1\n      pop\n      jump\t// out\n        /* \"#utility.yul\":10053:10226   */\n    tag_145:\n        /* \"#utility.yul\":10193:10218   */\n      0x506f6c69637920746964616b20646974656d756b616e2e000000000000000000\n        /* \"#utility.yul\":10189:10190   */\n      0x00\n        /* \"#utility.yul\":10181:10187   */\n      dup3\n        /* \"#utility.yul\":10177:10191   */\n      add\n        /* \"#utility.yul\":10170:10219   */\n      mstore\n        /* \"#utility.yul\":10053:10226   */\n      pop\n      jump\t// out\n        /* \"#utility.yul\":10232:10598   */\n    tag_146:\n        /* \"#utility.yul\":10374:10377   */\n      0x00\n        /* \"#utility.yul\":10395:10462   */\n      tag_272\n        /* \"#utility.yul\":10459:10461   */\n      0x17\n        /* \"#utility.yul\":10454:10457   */\n      dup4\n        /* \"#utility.yul\":10395:10462   */\n      tag_119\n      jump\t// in\n    tag_272:\n        /* \"#utility.yul\":10388:10462   */\n      swap2\n      pop\n        /* \"#utility.yul\":10471:10564   */\n      tag_273\n        /* \"#utility.yul\":10560:10563   */\n      dup3\n        /* \"#utility.yul\":10471:10564   */\n      tag_145\n      jump\t// in\n    tag_273:\n        /* \"#utility.yul\":10589:10591   */\n      0x20\n        /* \"#utility.yul\":10584:10587   */\n      dup3\n        /* \"#utility.yul\":10580:10592   */\n      add\n        /* \"#utility.yul\":10573:10592   */\n      swap1\n      pop\n        /* \"#utility.yul\":10232:10598   */\n      swap2\n      swap1\n      pop\n      jump\t// out\n        /* \"#utility.yul\":10604:11023   */\n    tag_48:\n        /* \"#utility.yul\":10770:10774   */\n      0x00\n        /* \"#utility.yul\":10808:10810   */\n      0x20\n        /* \"#utility.yul\":10797:10806   */\n      dup3\n        /* \"#utility.yul\":10793:10811   */\n      add\n        /* \"#utility.yul\":10785:10811   */\n      swap1\n      pop\n        /* \"#utility.yul\":10857:10866   */\n      dup2\n        /* \"#utility.yul\":10851:10855   */\n      dup2\n        /* \"#utility.yul\":10847:10867   */\n      sub\n        /* \"#utility.yul\":10843:10844   */\n      0x00\n        /* \"#utility.yul\":10832:10841   */\n      dup4\n        /* \"#utility.yul\":10828:10845   */\n      add\n        /* \"#utility.yul\":10821:10868   */\n      mstore\n        /* \"#utility.yul\":10885:11016   */\n      tag_275\n        /* \"#utility.yul\":11011:11015   */\n      dup2\n        /* \"#utility.yul\":10885:11016   */\n      tag_146\n      jump\t// in\n    tag_275:\n        /* \"#utility.yul\":10877:11016   */\n      swap1\n      pop\n        /* \"#utility.yul\":10604:11023   */\n      swap2\n      swap1\n      pop\n      jump\t// out\n        /* \"#utility.yul\":11029:11387   */\n    tag_53:\n        /* \"#utility.yul\":11163:11167   */\n      0x00\n        /* \"#utility.yul\":11201:11203   */\n      0x40\n        /* \"#utility.yul\":11190:11199   */\n      dup3\n        /* \"#utility.yul\":11186:11204   */\n      add\n        /* \"#utility.yul\":11178:11204   */\n      swap1\n      pop\n        /* \"#utility.yul\":11214:11285   */\n      tag_277\n        /* \"#utility.yul\":11282:11283   */\n      0x00\n        /* \"#utility.yul\":11271:11280   */\n      dup4\n        /* \"#utility.yul\":11267:11284   */\n      add\n        /* \"#utility.yul\":11258:11264   */\n      dup6\n        /* \"#utility.yul\":11214:11285   */\n      tag_117\n      jump\t// in\n    tag_277:\n        /* \"#utility.yul\":11295:11380   */\n      tag_278\n        /* \"#utility.yul\":11376:11378   */\n      0x20\n        /* \"#utility.yul\":11365:11374   */\n      dup4\n        /* \"#utility.yul\":11361:11379   */\n      add\n        /* \"#utility.yul\":11352:11358   */\n      dup5\n        /* \"#utility.yul\":11295:11380   */\n      tag_140\n      jump\t// in\n    tag_278:\n        /* \"#utility.yul\":11029:11387   */\n      swap4\n      swap3\n      pop\n      pop\n      pop\n      jump\t// out\n        /* \"#utility.yul\":11393:11573   */\n    tag_147:\n        /* \"#utility.yul\":11441:11518   */\n      0x4e487b7100000000000000000000000000000000000000000000000000000000\n        /* \"#utility.yul\":11438:11439   */\n      0x00\n        /* \"#utility.yul\":11431:11519   */\n      mstore\n        /* \"#utility.yul\":11538:11542   */\n      0x22\n        /* \"#utility.yul\":11535:11536   */\n      0x04\n        /* \"#utility.yul\":11528:11543   */\n      mstore\n        /* \"#utility.yul\":11562:11566   */\n      0x24\n        /* \"#utility.yul\":11559:11560   */\n      0x00\n        /* \"#utility.yul\":11552:11567   */\n      revert\n        /* \"#utility.yul\":11579:11899   */\n    tag_58:\n        /* \"#utility.yul\":11623:11629   */\n      0x00\n        /* \"#utility.yul\":11660:11661   */\n      0x02\n        /* \"#utility.yul\":11654:11658   */\n      dup3\n        /* \"#utility.yul\":11650:11662   */\n      div\n        /* \"#utility.yul\":11640:11662   */\n      swap1\n      pop\n        /* \"#utility.yul\":11707:11708   */\n      0x01\n        /* \"#utility.yul\":11701:11705   */\n      dup3\n        /* \"#utility.yul\":11697:11709   */\n      and\n        /* \"#utility.yul\":11728:11746   */\n      dup1\n        /* \"#utility.yul\":11718:11799   */\n      tag_281\n      jumpi\n        /* \"#utility.yul\":11784:11788   */\n      0x7f\n        /* \"#utility.yul\":11776:11782   */\n      dup3\n        /* \"#utility.yul\":11772:11789   */\n      and\n        /* \"#utility.yul\":11762:11789   */\n      swap2\n      pop\n        /* \"#utility.yul\":11718:11799   */\n    tag_281:\n        /* \"#utility.yul\":11846:11848   */\n      0x20\n        /* \"#utility.yul\":11838:11844   */\n      dup3\n        /* \"#utility.yul\":11835:11849   */\n      lt\n        /* \"#utility.yul\":11815:11833   */\n      dup2\n        /* \"#utility.yul\":11812:11850   */\n      sub\n        /* \"#utility.yul\":11809:11893   */\n      tag_282\n      jumpi\n        /* \"#utility.yul\":11865:11883   */\n      tag_283\n      tag_147\n      jump\t// in\n    tag_283:\n        /* \"#utility.yul\":11809:11893   */\n    tag_282:\n        /* \"#utility.yul\":11630:11899   */\n      pop\n        /* \"#utility.yul\":11579:11899   */\n      swap2\n      swap1\n      pop\n      jump\t// out\n        /* \"#utility.yul\":11905:12072   */\n    tag_148:\n        /* \"#utility.yul\":12045:12064   */\n      0x506f6c696379207375646168206164612e000000000000000000000000000000\n        /* \"#utility.yul\":12041:12042   */\n      0x00\n        /* \"#utility.yul\":12033:12039   */\n      dup3\n        /* \"#utility.yul\":12029:12043   */\n      add\n        /* \"#utility.yul\":12022:12065   */\n      mstore\n        /* \"#utility.yul\":11905:12072   */\n      pop\n      jump\t// out\n        /* \"#utility.yul\":12078:12444   */\n    tag_149:\n        /* \"#utility.yul\":12220:12223   */\n      0x00\n        /* \"#utility.yul\":12241:12308   */\n      tag_286\n        /* \"#utility.yul\":12305:12307   */\n      0x11\n        /* \"#utility.yul\":12300:12303   */\n      dup4\n        /* \"#utility.yul\":12241:12308   */\n      tag_119\n      jump\t// in\n    tag_286:\n        /* \"#utility.yul\":12234:12308   */\n      swap2\n      pop\n        /* \"#utility.yul\":12317:12410   */\n      tag_287\n        /* \"#utility.yul\":12406:12409   */\n      dup3\n        /* \"#utility.yul\":12317:12410   */\n      tag_148\n      jump\t// in\n    tag_287:\n        /* \"#utility.yul\":12435:12437   */\n      0x20\n        /* \"#utility.yul\":12430:12433   */\n      dup3\n        /* \"#utility.yul\":12426:12438   */\n      add\n        /* \"#utility.yul\":12419:12438   */\n      swap1\n      pop\n        /* \"#utility.yul\":12078:12444   */\n      swap2\n      swap1\n      pop\n      jump\t// out\n        /* \"#utility.yul\":12450:12869   */\n    tag_97:\n        /* \"#utility.yul\":12616:12620   */\n      0x00\n        /* \"#utility.yul\":12654:12656   */\n      0x20\n        /* \"#utility.yul\":12643:12652   */\n      dup3\n        /* \"#utility.yul\":12639:12657   */\n      add\n        /* \"#utility.yul\":12631:12657   */\n      swap1\n      pop\n        /* \"#utility.yul\":12703:12712   */\n      dup2\n        /* \"#utility.yul\":12697:12701   */\n      dup2\n        /* \"#utility.yul\":12693:12713   */\n      sub\n        /* \"#utility.yul\":12689:12690   */\n      0x00\n        /* \"#utility.yul\":12678:12687   */\n      dup4\n        /* \"#utility.yul\":12674:12691   */\n      add\n        /* \"#utility.yul\":12667:12714   */\n      mstore\n        /* \"#utility.yul\":12731:12862   */\n      tag_289\n        /* \"#utility.yul\":12857:12861   */\n      dup2\n        /* \"#utility.yul\":12731:12862   */\n      tag_149\n      jump\t// in\n    tag_289:\n        /* \"#utility.yul\":12723:12862   */\n      swap1\n      pop\n        /* \"#utility.yul\":12450:12869   */\n      swap2\n      swap1\n      pop\n      jump\t// out\n        /* \"#utility.yul\":12875:13016   */\n    tag_150:\n        /* \"#utility.yul\":12924:12928   */\n      0x00\n        /* \"#utility.yul\":12947:12950   */\n      dup2\n        /* \"#utility.yul\":12939:12950   */\n      swap1\n      pop\n        /* \"#utility.yul\":12970:12973   */\n      dup2\n        /* \"#utility.yul\":12967:12968   */\n      0x00\n        /* \"#utility.yul\":12960:12974   */\n      mstore\n        /* \"#utility.yul\":13004:13008   */\n      0x20\n        /* \"#utility.yul\":13001:13002   */\n      0x00\n        /* \"#utility.yul\":12991:13009   */\n      keccak256\n        /* \"#utility.yul\":12983:13009   */\n      swap1\n      pop\n        /* \"#utility.yul\":12875:13016   */\n      swap2\n      swap1\n      pop\n      jump\t// out\n        /* \"#utility.yul\":13022:13115   */\n    tag_151:\n        /* \"#utility.yul\":13059:13065   */\n      0x00\n        /* \"#utility.yul\":13106:13108   */\n      0x20\n        /* \"#utility.yul\":13101:13103   */\n      0x1f\n        /* \"#utility.yul\":13094:13099   */\n      dup4\n        /* \"#utility.yul\":13090:13104   */\n      add\n        /* \"#utility.yul\":13086:13109   */\n      div\n        /* \"#utility.yul\":13076:13109   */\n      swap1\n      pop\n        /* \"#utility.yul\":13022:13115   */\n      swap2\n      swap1\n      pop\n      jump\t// out\n        /* \"#utility.yul\":13121:13228   */\n    tag_152:\n        /* \"#utility.yul\":13165:13173   */\n      0x00\n        /* \"#utility.yul\":13215:13220   */\n      dup3\n        /* \"#utility.yul\":13209:13213   */\n      dup3\n        /* \"#utility.yul\":13205:13221   */\n      shl\n        /* \"#utility.yul\":13184:13221   */\n      swap1\n      pop\n        /* \"#utility.yul\":13121:13228   */\n      swap3\n      swap2\n      pop\n      pop\n      jump\t// out\n        /* \"#utility.yul\":13234:13627   */\n    tag_153:\n        /* \"#utility.yul\":13303:13309   */\n      0x00\n        /* \"#utility.yul\":13353:13354   */\n      0x08\n        /* \"#utility.yul\":13341:13351   */\n      dup4\n        /* \"#utility.yul\":13337:13355   */\n      mul\n        /* \"#utility.yul\":13376:13473   */\n      tag_294\n        /* \"#utility.yul\":13406:13472   */\n      0xffffffffffffffffffffffffffffffffffffffffffffffffffffffffffffffff\n        /* \"#utility.yul\":13395:13404   */\n      dup3\n        /* \"#utility.yul\":13376:13473   */\n      tag_152\n      jump\t// in\n    tag_294:\n        /* \"#utility.yul\":13494:13533   */\n      tag_295\n        /* \"#utility.yul\":13524:13532   */\n      dup7\n        /* \"#utility.yul\":13513:13522   */\n      dup4\n        /* \"#utility.yul\":13494:13533   */\n      tag_152\n      jump\t// in\n    tag_295:\n        /* \"#utility.yul\":13482:13533   */\n      swap6\n      pop\n        /* \"#utility.yul\":13566:13570   */\n      dup1\n        /* \"#utility.yul\":13562:13571   */\n      not\n        /* \"#utility.yul\":13555:13560   */\n      dup5\n        /* \"#utility.yul\":13551:13572   */\n      and\n        /* \"#utility.yul\":13542:13572   */\n      swap4\n      pop\n        /* \"#utility.yul\":13615:13619   */\n      dup1\n        /* \"#utility.yul\":13605:13613   */\n      dup7\n        /* \"#utility.yul\":13601:13620   */\n      and\n        /* \"#utility.yul\":13594:13599   */\n      dup5\n        /* \"#utility.yul\":13591:13621   */\n      or\n        /* \"#utility.yul\":13581:13621   */\n      swap3\n      pop\n        /* \"#utility.yul\":13310:13627   */\n      pop\n      pop\n        /* \"#utility.yul\":13234:13627   */\n      swap4\n      swap3\n      pop\n      pop\n      pop\n      jump\t// out\n        /* \"#utility.yul\":13633:13693   */\n    tag_154:\n        /* \"#utility.yul\":13661:13664   */\n      0x00\n        /* \"#utility.yul\":13682:13687   */\n      dup2\n        /* \"#utility.yul\":13675:13687   */\n      swap1\n      pop\n        /* \"#utility.yul\":13633:13693   */\n      swap2\n      swap1\n      pop\n      jump\t// out\n        /* \"#utility.yul\":13699:13841   */\n    tag_155:\n        /* \"#utility.yul\":13749:13758   */\n      0x00\n        /* \"#utility.yul\":13782:13835   */\n      tag_298\n        /* \"#utility.yul\":13800:13834   */\n      tag_299\n        /* \"#utility.yul\":13809:13833   */\n      tag_300\n        /* \"#utility.yul\":13827:13832   */\n      dup5\n        /* \"#utility.yul\":13809:13833   */\n      tag_114\n      jump\t// in\n    tag_300:\n        /* \"#utility.yul\":13800:13834   */\n      tag_154\n      jump\t// in\n    tag_299:\n        /* \"#utility.yul\":13782:13835   */\n      tag_114\n      jump\t// in\n    tag_298:\n        /* \"#utility.yul\":13769:13835   */\n      swap1\n      pop\n        /* \"#utility.yul\":13699:13841   */\n      swap2\n      swap1\n      pop\n      jump\t// out\n        /* \"#utility.yul\":13847:13922   */\n    tag_156:\n        /* \"#utility.yul\":13890:13893   */\n      0x00\n        /* \"#utility.yul\":13911:13916   */\n      dup2\n        /* \"#utility.yul\":13904:13916   */\n      swap1\n      pop\n        /* \"#utility.yul\":13847:13922   */\n      swap2\n      swap1\n      pop\n      jump\t// out\n        /* \"#utility.yul\":13928:14197   */\n    tag_157:\n        /* \"#utility.yul\":14038:14077   */\n      tag_303\n        /* \"#utility.yul\":14069:14076   */\n      dup4\n        /* \"#utility.yul\":14038:14077   */\n      tag_155\n      jump\t// in\n    tag_303:\n        /* \"#utility.yul\":14099:14190   */\n      tag_304\n        /* \"#utility.yul\":14148:14189   */\n      tag_305\n        /* \"#utility.yul\":14172:14188   */\n      dup3\n        /* \"#utility.yul\":14148:14189   */\n      tag_156\n      jump\t// in\n    tag_305:\n        /* \"#utility.yul\":14140:14146   */\n      dup5\n        /* \"#utility.yul\":14133:14137   */\n      dup5\n        /* \"#utility.yul\":14127:14138   */\n      sload\n        /* \"#utility.yul\":14099:14190   */\n      tag_153\n      jump\t// in\n    tag_304:\n        /* \"#utility.yul\":14093:14097   */\n      dup3\n        /* \"#utility.yul\":14086:14191   */\n      sstore\n        /* \"#utility.yul\":14004:14197   */\n      pop\n        /* \"#utility.yul\":13928:14197   */\n      pop\n      pop\n      pop\n      jump\t// out\n        /* \"#utility.yul\":14203:14276   */\n    tag_158:\n        /* \"#utility.yul\":14248:14251   */\n      0x00\n        /* \"#utility.yul\":14269:14270   */\n      0x00\n        /* \"#utility.yul\":14262:14270   */\n      swap1\n      pop\n        /* \"#utility.yul\":14203:14276   */\n      swap1\n      jump\t// out\n        /* \"#utility.yul\":14282:14471   */\n    tag_159:\n        /* \"#utility.yul\":14359:14391   */\n      tag_308\n      tag_158\n      jump\t// in\n    tag_308:\n        /* \"#utility.yul\":14400:14465   */\n      tag_309\n        /* \"#utility.yul\":14458:14464   */\n      dup2\n        /* \"#utility.yul\":14450:14456   */\n      dup5\n        /* \"#utility.yul\":14444:14448   */\n      dup5\n        /* \"#utility.yul\":14400:14465   */\n      tag_157\n      jump\t// in\n    tag_309:\n        /* \"#utility.yul\":14335:14471   */\n      pop\n        /* \"#utility.yul\":14282:14471   */\n      pop\n      pop\n      jump\t// out\n        /* \"#utility.yul\":14477:14691   */\n    tag_160:\n        /* \"#utility.yul\":14562:14563   */\n      0x00\n        /* \"#utility.yul\":14547:14685   */\n    tag_311:\n        /* \"#utility.yul\":14572:14581   */\n      dup3\n        /* \"#utility.yul\":14569:14570   */\n      dup2\n        /* \"#utility.yul\":14566:14582   */\n      lt\n        /* \"#utility.yul\":14547:14685   */\n      iszero\n      tag_313\n      jumpi\n        /* \"#utility.yul\":14624:14675   */\n      tag_314\n        /* \"#utility.yul\":14673:14674   */\n      0x00\n        /* \"#utility.yul\":14669:14670   */\n      dup3\n        /* \"#utility.yul\":14658:14667   */\n      dup5\n        /* \"#utility.yul\":14654:14671   */\n      add\n        /* \"#utility.yul\":14624:14675   */\n      tag_159\n      jump\t// in\n    tag_314:\n        /* \"#utility.yul\":14597:14598   */\n      0x01\n        /* \"#utility.yul\":14594:14595   */\n      dup2\n        /* \"#utility.yul\":14590:14599   */\n      add\n        /* \"#utility.yul\":14585:14599   */\n      swap1\n      pop\n        /* \"#utility.yul\":14547:14685   */\n      jump(tag_311)\n    tag_313:\n        /* \"#utility.yul\":14551:14565   */\n      pop\n        /* \"#utility.yul\":14477:14691   */\n      pop\n      pop\n      jump\t// out\n        /* \"#utility.yul\":14697:15443   */\n    tag_161:\n        /* \"#utility.yul\":14798:14800   */\n      0x1f\n        /* \"#utility.yul\":14793:14796   */\n      dup3\n        /* \"#utility.yul\":14790:14801   */\n      gt\n        /* \"#utility.yul\":14787:15436   */\n      iszero\n      tag_316\n      jumpi\n        /* \"#utility.yul\":14827:14837   */\n      dup3\n        /* \"#utility.yul\":14822:14825   */\n      dup3\n        /* \"#utility.yul\":14819:14838   */\n      gt\n        /* \"#utility.yul\":14816:15426   */\n      iszero\n      tag_317\n      jumpi\n        /* \"#utility.yul\":14873:14911   */\n      tag_318\n        /* \"#utility.yul\":14905:14910   */\n      dup2\n        /* \"#utility.yul\":14873:14911   */\n      tag_150\n      jump\t// in\n    tag_318:\n        /* \"#utility.yul\":14948:14970   */\n      tag_319\n        /* \"#utility.yul\":14966:14969   */\n      dup4\n        /* \"#utility.yul\":14948:14970   */\n      tag_151\n      jump\t// in\n    tag_319:\n        /* \"#utility.yul\":15007:15036   */\n      tag_320\n        /* \"#utility.yul\":15025:15035   */\n      dup6\n        /* \"#utility.yul\":15007:15036   */\n      tag_151\n      jump\t// in\n    tag_320:\n        /* \"#utility.yul\":15197:15199   */\n      0x20\n        /* \"#utility.yul\":15185:15195   */\n      dup7\n        /* \"#utility.yul\":15182:15200   */\n      lt\n        /* \"#utility.yul\":15179:15258   */\n      iszero\n      tag_321\n      jumpi\n        /* \"#utility.yul\":15239:15240   */\n      0x00\n        /* \"#utility.yul\":15223:15240   */\n      swap1\n      pop\n        /* \"#utility.yul\":15179:15258   */\n    tag_321:\n        /* \"#utility.yul\":15308:15320   */\n      dup1\n        /* \"#utility.yul\":15298:15306   */\n      dup4\n        /* \"#utility.yul\":15294:15321   */\n      add\n        /* \"#utility.yul\":15338:15412   */\n      tag_322\n        /* \"#utility.yul\":15398:15410   */\n      dup3\n        /* \"#utility.yul\":15384:15396   */\n      dup5\n        /* \"#utility.yul\":15380:15411   */\n      sub\n        /* \"#utility.yul\":15367:15378   */\n      dup3\n        /* \"#utility.yul\":15338:15412   */\n      tag_160\n      jump\t// in\n    tag_322:\n        /* \"#utility.yul\":14839:15426   */\n      pop\n      pop\n      pop\n      pop\n        /* \"#utility.yul\":14816:15426   */\n    tag_317:\n        /* \"#utility.yul\":14787:15436   */\n    tag_316:\n        /* \"#utility.yul\":14697:15443   */\n      pop\n      pop\n      pop\n      jump\t// out\n        /* \"#utility.yul\":15449:15566   */\n    tag_162:\n        /* \"#utility.yul\":15503:15511   */\n      0x00\n        /* \"#utility.yul\":15553:15558   */\n      dup3\n        /* \"#utility.yul\":15547:15551   */\n      dup3\n        /* \"#utility.yul\":15543:15559   */\n      shr\n        /* \"#utility.yul\":15522:15559   */\n      swap1\n      pop\n        /* \"#utility.yul\":15449:15566   */\n      swap3\n      swap2\n      pop\n      pop\n      jump\t// out\n        /* \"#utility.yul\":15572:15741   */\n    tag_163:\n        /* \"#utility.yul\":15616:15622   */\n      0x00\n        /* \"#utility.yul\":15649:15700   */\n      tag_325\n        /* \"#utility.yul\":15697:15698   */\n      0x00\n        /* \"#utility.yul\":15693:15699   */\n      not\n        /* \"#utility.yul\":15685:15690   */\n      dup5\n        /* \"#utility.yul\":15682:15683   */\n      0x08\n        /* \"#utility.yul\":15678:15691   */\n      mul\n        /* \"#utility.yul\":15649:15700   */\n      tag_162\n      jump\t// in\n    tag_325:\n        /* \"#utility.yul\":15645:15701   */\n      not\n        /* \"#utility.yul\":15730:15734   */\n      dup1\n        /* \"#utility.yul\":15724:15728   */\n      dup4\n        /* \"#utility.yul\":15720:15735   */\n      and\n        /* \"#utility.yul\":15710:15735   */\n      swap2\n      pop\n        /* \"#utility.yul\":15623:15741   */\n      pop\n        /* \"#utility.yul\":15572:15741   */\n      swap3\n      swap2\n      pop\n      pop\n      jump\t// out\n        /* \"#utility.yul\":15746:16041   */\n    tag_164:\n        /* \"#utility.yul\":15822:15826   */\n      0x00\n        /* \"#utility.yul\":15968:15997   */\n      tag_327\n        /* \"#utility.yul\":15993:15996   */\n      dup4\n        /* \"#utility.yul\":15987:15991   */\n      dup4\n        /* \"#utility.yul\":15968:15997   */\n      tag_163\n      jump\t// in\n    tag_327:\n        /* \"#utility.yul\":15960:15997   */\n      swap2\n      pop\n        /* \"#utility.yul\":16030:16033   */\n      dup3\n        /* \"#utility.yul\":16027:16028   */\n      0x02\n        /* \"#utility.yul\":16023:16034   */\n      mul\n        /* \"#utility.yul\":16017:16021   */\n      dup3\n        /* \"#utility.yul\":16014:16035   */\n      or\n        /* \"#utility.yul\":16006:16035   */\n      swap1\n      pop\n        /* \"#utility.yul\":15746:16041   */\n      swap3\n      swap2\n      pop\n      pop\n      jump\t// out\n        /* \"#utility.yul\":16046:17441   */\n    tag_101:\n        /* \"#utility.yul\":16163:16200   */\n      tag_329\n        /* \"#utility.yul\":16196:16199   */\n      dup3\n        /* \"#utility.yul\":16163:16200   */\n      tag_118\n      jump\t// in\n    tag_329:\n        /* \"#utility.yul\":16265:16283   */\n      0xffffffffffffffff\n        /* \"#utility.yul\":16257:16263   */\n      dup2\n        /* \"#utility.yul\":16254:16284   */\n      gt\n        /* \"#utility.yul\":16251:16307   */\n      iszero\n      tag_330\n      jumpi\n        /* \"#utility.yul\":16287:16305   */\n      tag_331\n      tag_128\n      jump\t// in\n    tag_331:\n        /* \"#utility.yul\":16251:16307   */\n    tag_330:\n        /* \"#utility.yul\":16331:16369   */\n      tag_332\n        /* \"#utility.yul\":16363:16367   */\n      dup3\n        /* \"#utility.yul\":16357:16368   */\n      sload\n        /* \"#utility.yul\":16331:16369   */\n      tag_58\n      jump\t// in\n    tag_332:\n        /* \"#utility.yul\":16416:16483   */\n      tag_333\n        /* \"#utility.yul\":16476:16482   */\n      dup3\n        /* \"#utility.yul\":16468:16474   */\n      dup3\n        /* \"#utility.yul\":16462:16466   */\n      dup6\n        /* \"#utility.yul\":16416:16483   */\n      tag_161\n      jump\t// in\n    tag_333:\n        /* \"#utility.yul\":16510:16511   */\n      0x00\n        /* \"#utility.yul\":16534:16538   */\n      0x20\n        /* \"#utility.yul\":16521:16538   */\n      swap1\n      pop\n        /* \"#utility.yul\":16566:16568   */\n      0x1f\n        /* \"#utility.yul\":16558:16564   */\n      dup4\n        /* \"#utility.yul\":16555:16569   */\n      gt\n        /* \"#utility.yul\":16583:16584   */\n      0x01\n        /* \"#utility.yul\":16578:17196   */\n      dup2\n      eq\n      tag_335\n      jumpi\n        /* \"#utility.yul\":17240:17241   */\n      0x00\n        /* \"#utility.yul\":17257:17263   */\n      dup5\n        /* \"#utility.yul\":17254:17331   */\n      iszero\n      tag_336\n      jumpi\n        /* \"#utility.yul\":17306:17315   */\n      dup3\n        /* \"#utility.yul\":17301:17304   */\n      dup8\n        /* \"#utility.yul\":17297:17316   */\n      add\n        /* \"#utility.yul\":17291:17317   */\n      mload\n        /* \"#utility.yul\":17282:17317   */\n      swap1\n      pop\n        /* \"#utility.yul\":17254:17331   */\n    tag_336:\n        /* \"#utility.yul\":17357:17424   */\n      tag_337\n        /* \"#utility.yul\":17417:17423   */\n      dup6\n        /* \"#utility.yul\":17410:17415   */\n      dup3\n        /* \"#utility.yul\":17357:17424   */\n      tag_164\n      jump\t// in\n    tag_337:\n        /* \"#utility.yul\":17351:17355   */\n      dup7\n        /* \"#utility.yul\":17344:17425   */\n      sstore\n        /* \"#utility.yul\":17213:17435   */\n      pop\n        /* \"#utility.yul\":16548:17435   */\n      jump(tag_334)\n        /* \"#utility.yul\":16578:17196   */\n    tag_335:\n        /* \"#utility.yul\":16630:16634   */\n      0x1f\n        /* \"#utility.yul\":16626:16635   */\n      not\n        /* \"#utility.yul\":16618:16624   */\n      dup5\n        /* \"#utility.yul\":16614:16636   */\n      and\n        /* \"#utility.yul\":16664:16701   */\n      tag_338\n        /* \"#utility.yul\":16696:16700   */\n      dup7\n        /* \"#utility.yul\":16664:16701   */\n      tag_150\n      jump\t// in\n    tag_338:\n        /* \"#utility.yul\":16723:16724   */\n      0x00\n        /* \"#utility.yul\":16737:16945   */\n    tag_339:\n        /* \"#utility.yul\":16751:16758   */\n      dup3\n        /* \"#utility.yul\":16748:16749   */\n      dup2\n        /* \"#utility.yul\":16745:16759   */\n      lt\n        /* \"#utility.yul\":16737:16945   */\n      iszero\n      tag_341\n      jumpi\n        /* \"#utility.yul\":16830:16839   */\n      dup5\n        /* \"#utility.yul\":16825:16828   */\n      dup10\n        /* \"#utility.yul\":16821:16840   */\n      add\n        /* \"#utility.yul\":16815:16841   */\n      mload\n        /* \"#utility.yul\":16807:16813   */\n      dup3\n        /* \"#utility.yul\":16800:16842   */\n      sstore\n        /* \"#utility.yul\":16881:16882   */\n      0x01\n        /* \"#utility.yul\":16873:16879   */\n      dup3\n        /* \"#utility.yul\":16869:16883   */\n      add\n        /* \"#utility.yul\":16859:16883   */\n      swap2\n      pop\n        /* \"#utility.yul\":16928:16930   */\n      0x20\n        /* \"#utility.yul\":16917:16926   */\n      dup6\n        /* \"#utility.yul\":16913:16931   */\n      add\n        /* \"#utility.yul\":16900:16931   */\n      swap5\n      pop\n        /* \"#utility.yul\":16774:16778   */\n      0x20\n        /* \"#utility.yul\":16771:16772   */\n      dup2\n        /* \"#utility.yul\":16767:16779   */\n      add\n        /* \"#utility.yul\":16762:16779   */\n      swap1\n      pop\n        /* \"#utility.yul\":16737:16945   */\n      jump(tag_339)\n    tag_341:\n        /* \"#utility.yul\":16973:16979   */\n      dup7\n        /* \"#utility.yul\":16964:16971   */\n      dup4\n        /* \"#utility.yul\":16961:16980   */\n      lt\n        /* \"#utility.yul\":16958:17137   */\n      iszero\n      tag_342\n      jumpi\n        /* \"#utility.yul\":17031:17040   */\n      dup5\n        /* \"#utility.yul\":17026:17029   */\n      dup10\n        /* \"#utility.yul\":17022:17041   */\n      add\n        /* \"#utility.yul\":17016:17042   */\n      mload\n        /* \"#utility.yul\":17074:17122   */\n      tag_343\n        /* \"#utility.yul\":17116:17120   */\n      0x1f\n        /* \"#utility.yul\":17108:17114   */\n      dup10\n        /* \"#utility.yul\":17104:17121   */\n      and\n        /* \"#utility.yul\":17093:17102   */\n      dup3\n        /* \"#utility.yul\":17074:17122   */\n      tag_163\n      jump\t// in\n    tag_343:\n        /* \"#utility.yul\":17066:17072   */\n      dup4\n        /* \"#utility.yul\":17059:17123   */\n      sstore\n        /* \"#utility.yul\":16981:17137   */\n      pop\n        /* \"#utility.yul\":16958:17137   */\n    tag_342:\n        /* \"#utility.yul\":17183:17184   */\n      0x01\n        /* \"#utility.yul\":17179:17180   */\n      0x02\n        /* \"#utility.yul\":17171:17177   */\n      dup9\n        /* \"#utility.yul\":17167:17181   */\n      mul\n        /* \"#utility.yul\":17163:17185   */\n      add\n        /* \"#utility.yul\":17157:17161   */\n      dup9\n        /* \"#utility.yul\":17150:17186   */\n      sstore\n        /* \"#utility.yul\":16585:17196   */\n      pop\n      pop\n      pop\n        /* \"#utility.yul\":16548:17435   */\n    tag_334:\n      pop\n        /* \"#utility.yul\":16138:17441   */\n      pop\n      pop\n      pop\n        /* \"#utility.yul\":16046:17441   */\n      pop\n      pop\n      jump\t// out\n        /* \"#utility.yul\":17447:17980   */\n    tag_105:\n        /* \"#utility.yul\":17616:17620   */\n      0x00\n        /* \"#utility.yul\":17654:17656   */\n      0x60\n        /* \"#utility.yul\":17643:17652   */\n      dup3\n        /* \"#utility.yul\":17639:17657   */\n      add\n        /* \"#utility.yul\":17631:17657   */\n      swap1\n      pop\n        /* \"#utility.yul\":17667:17738   */\n      tag_345\n        /* \"#utility.yul\":17735:17736   */\n      0x00\n        /* \"#utility.yul\":17724:17733   */\n      dup4\n        /* \"#utility.yul\":17720:17737   */\n      add\n        /* \"#utility.yul\":17711:17717   */\n      dup7\n        /* \"#utility.yul\":17667:17738   */\n      tag_117\n      jump\t// in\n    tag_345:\n        /* \"#utility.yul\":17785:17794   */\n      dup2\n        /* \"#utility.yul\":17779:17783   */\n      dup2\n        /* \"#utility.yul\":17775:17795   */\n      sub\n        /* \"#utility.yul\":17770:17772   */\n      0x20\n        /* \"#utility.yul\":17759:17768   */\n      dup4\n        /* \"#utility.yul\":17755:17773   */\n      add\n        /* \"#utility.yul\":17748:17796   */\n      mstore\n        /* \"#utility.yul\":17813:17891   */\n      tag_346\n        /* \"#utility.yul\":17886:17890   */\n      dup2\n        /* \"#utility.yul\":17877:17883   */\n      dup6\n        /* \"#utility.yul\":17813:17891   */\n      tag_122\n      jump\t// in\n    tag_346:\n        /* \"#utility.yul\":17805:17891   */\n      swap1\n      pop\n        /* \"#utility.yul\":17901:17973   */\n      tag_347\n        /* \"#utility.yul\":17969:17971   */\n      0x40\n        /* \"#utility.yul\":17958:17967   */\n      dup4\n        /* \"#utility.yul\":17954:17972   */\n      add\n        /* \"#utility.yul\":17945:17951   */\n      dup5\n        /* \"#utility.yul\":17901:17973   */\n      tag_125\n      jump\t// in\n    tag_347:\n        /* \"#utility.yul\":17447:17980   */\n      swap5\n      swap4\n      pop\n      pop\n      pop\n      pop\n      jump\t// out\n\n    auxdata: 0xa2646970667358221220035e3b2f0b57a939e60e5f26abfe16cdd45c2c6b28a4386f11bad3acba5f073964736f6c63430008220033\n}\n",
				"bytecode": {
					"linkReferences": {},
					"object": "6080604052348015600e575f5ffd5b50335f5f6101000a81548173ffffffffffffffffffffffffffffffffffffffff021916908373ffffffffffffffffffffffffffffffffffffffff1602179055506114fa8061005b5f395ff3fe608060405234801561000f575f5ffd5b506004361061007b575f3560e01c806344ada3051161005957806344ada305146100eb578063594b03ba1461011b5780638da5cb5b14610137578063d3e89483146101555761007b565b806306f8cc0c1461007f5780632b07fce31461009b57806332b7860d146100cf575b5f5ffd5b61009960048036038101906100949190610bdc565b61018a565b005b6100b560048036038101906100b09190610bdc565b6102f1565b6040516100c6959493929190610cc5565b60405180910390f35b6100e960048036038101906100e49190610bdc565b610595565b005b61010560048036038101906101009190610bdc565b6106fb565b6040516101129190610d24565b60405180910390f35b61013560048036038101906101309190610e9a565b610824565b005b61013f610a7e565b60405161014c9190610f1a565b60405180910390f35b61016f600480360381019061016a9190610bdc565b610aa2565b60405161018196959493929190610fc0565b60405180910390f35b5f5f9054906101000a900473ffffffffffffffffffffffffffffffffffffffff1673ffffffffffffffffffffffffffffffffffffffff163373ffffffffffffffffffffffffffffffffffffffff1614610218576040517f08c379a000000000000000000000000000000000000000000000000000000000815260040161020f90611096565b60405180910390fd5b60015f8281526020019081526020015f2060040160019054906101000a900460ff16610279576040517f08c379a0000000000000000000000000000000000000000000000000000000008152600401610270906110fe565b60405180910390fd5b6001805f8381526020019081526020015f206004015f6101000a81548160ff021916908360018111156102af576102ae610f33565b5b02179055507f2da7b23ca63c1eb969eee5fae4acb98186abecf5358b0354a82a5183ebca6b2a8160016040516102e692919061111c565b60405180910390a150565b5f60605f5f606060015f8781526020019081526020015f2060040160019054906101000a900460ff16610359576040517f08c379a0000000000000000000000000000000000000000000000000000000008152600401610350906110fe565b60405180910390fd5b5f60015f8881526020019081526020015f206040518060c00160405290815f820154815260200160018201805461038f90611170565b80601f01602080910402602001604051908101604052809291908181526020018280546103bb90611170565b80156104065780601f106103dd57610100808354040283529160200191610406565b820191905f5260205f20905b8154815290600101906020018083116103e957829003601f168201915b50505050508152602001600282015f9054906101000a900473ffffffffffffffffffffffffffffffffffffffff1673ffffffffffffffffffffffffffffffffffffffff1673ffffffffffffffffffffffffffffffffffffffff16815260200160038201548152602001600482015f9054906101000a900460ff16600181111561049257610491610f33565b5b60018111156104a4576104a3610f33565b5b81526020016004820160019054906101000a900460ff161515151581525050905060605f60018111156104da576104d9610f33565b5b826080015160018111156104f1576104f0610f33565b5b03610533576040518060400160405280600581526020017f416b746966000000000000000000000000000000000000000000000000000000815250905061056c565b6040518060400160405280600481526020017f436169720000000000000000000000000000000000000000000000000000000081525090505b815f01518260200151836040015184606001518496509650965096509650505091939590929450565b5f5f9054906101000a900473ffffffffffffffffffffffffffffffffffffffff1673ffffffffffffffffffffffffffffffffffffffff163373ffffffffffffffffffffffffffffffffffffffff1614610623576040517f08c379a000000000000000000000000000000000000000000000000000000000815260040161061a90611096565b60405180910390fd5b60015f8281526020019081526020015f2060040160019054906101000a900460ff16610684576040517f08c379a000000000000000000000000000000000000000000000000000000000815260040161067b906110fe565b60405180910390fd5b5f60015f8381526020019081526020015f206004015f6101000a81548160ff021916908360018111156106ba576106b9610f33565b5b02179055507f2da7b23ca63c1eb969eee5fae4acb98186abecf5358b0354a82a5183ebca6b2a815f6040516106f092919061111c565b60405180910390a150565b606060015f8381526020019081526020015f2060040160019054906101000a900460ff1661075e576040517f08c379a0000000000000000000000000000000000000000000000000000000008152600401610755906110fe565b60405180910390fd5b5f600181111561077157610770610f33565b5b60015f8481526020019081526020015f206004015f9054906101000a900460ff1660018111156107a4576107a3610f33565b5b036107e6576040518060400160405280600581526020017f416b746966000000000000000000000000000000000000000000000000000000815250905061081f565b6040518060400160405280600481526020017f436169720000000000000000000000000000000000000000000000000000000081525090505b919050565b5f5f9054906101000a900473ffffffffffffffffffffffffffffffffffffffff1673ffffffffffffffffffffffffffffffffffffffff163373ffffffffffffffffffffffffffffffffffffffff16146108b2576040517f08c379a00000000000000000000000000000000000000000000000000000000081526004016108a990611096565b60405180910390fd5b60015f8581526020019081526020015f2060040160019054906101000a900460ff1615610914576040517f08c379a000000000000000000000000000000000000000000000000000000000815260040161090b906111ea565b60405180910390fd5b6040518060c001604052808581526020018481526020018373ffffffffffffffffffffffffffffffffffffffff1681526020018281526020015f60018111156109605761095f610f33565b5b81526020016001151581525060015f8681526020019081526020015f205f820151815f0155602082015181600101908161099a91906113b9565b506040820151816002015f6101000a81548173ffffffffffffffffffffffffffffffffffffffff021916908373ffffffffffffffffffffffffffffffffffffffff160217905550606082015181600301556080820151816004015f6101000a81548160ff02191690836001811115610a1557610a14610f33565b5b021790555060a08201518160040160016101000a81548160ff0219169083151502179055509050507fe060903a71989416db77650c9585adbae8f4fc8633a778a547d25e3c78789f4c848484604051610a7093929190611488565b60405180910390a150505050565b5f5f9054906101000a900473ffffffffffffffffffffffffffffffffffffffff1681565b6001602052805f5260405f205f91509050805f015490806001018054610ac790611170565b80601f0160208091040260200160405190810160405280929190818152602001828054610af390611170565b8015610b3e5780601f10610b1557610100808354040283529160200191610b3e565b820191905f5260205f20905b815481529060010190602001808311610b2157829003601f168201915b505050505090806002015f9054906101000a900473ffffffffffffffffffffffffffffffffffffffff1690806003015490806004015f9054906101000a900460ff16908060040160019054906101000a900460ff16905086565b5f604051905090565b5f5ffd5b5f5ffd5b5f819050919050565b610bbb81610ba9565b8114610bc5575f5ffd5b50565b5f81359050610bd681610bb2565b92915050565b5f60208284031215610bf157610bf0610ba1565b5b5f610bfe84828501610bc8565b91505092915050565b610c1081610ba9565b82525050565b5f81519050919050565b5f82825260208201905092915050565b8281835e5f83830152505050565b5f601f19601f8301169050919050565b5f610c5882610c16565b610c628185610c20565b9350610c72818560208601610c30565b610c7b81610c3e565b840191505092915050565b5f73ffffffffffffffffffffffffffffffffffffffff82169050919050565b5f610caf82610c86565b9050919050565b610cbf81610ca5565b82525050565b5f60a082019050610cd85f830188610c07565b8181036020830152610cea8187610c4e565b9050610cf96040830186610cb6565b610d066060830185610c07565b8181036080830152610d188184610c4e565b90509695505050505050565b5f6020820190508181035f830152610d3c8184610c4e565b905092915050565b5f5ffd5b5f5ffd5b7f4e487b71000000000000000000000000000000000000000000000000000000005f52604160045260245ffd5b610d8282610c3e565b810181811067ffffffffffffffff82111715610da157610da0610d4c565b5b80604052505050565b5f610db3610b98565b9050610dbf8282610d79565b919050565b5f67ffffffffffffffff821115610dde57610ddd610d4c565b5b610de782610c3e565b9050602081019050919050565b828183375f83830152505050565b5f610e14610e0f84610dc4565b610daa565b905082815260208101848484011115610e3057610e2f610d48565b5b610e3b848285610df4565b509392505050565b5f82601f830112610e5757610e56610d44565b5b8135610e67848260208601610e02565b91505092915050565b610e7981610ca5565b8114610e83575f5ffd5b50565b5f81359050610e9481610e70565b92915050565b5f5f5f5f60808587031215610eb257610eb1610ba1565b5b5f610ebf87828801610bc8565b945050602085013567ffffffffffffffff811115610ee057610edf610ba5565b5b610eec87828801610e43565b9350506040610efd87828801610e86565b9250506060610f0e87828801610bc8565b91505092959194509250565b5f602082019050610f2d5f830184610cb6565b92915050565b7f4e487b71000000000000000000000000000000000000000000000000000000005f52602160045260245ffd5b60028110610f7157610f70610f33565b5b50565b5f819050610f8182610f60565b919050565b5f610f9082610f74565b9050919050565b610fa081610f86565b82525050565b5f8115159050919050565b610fba81610fa6565b82525050565b5f60c082019050610fd35f830189610c07565b8181036020830152610fe58188610c4e565b9050610ff46040830187610cb6565b6110016060830186610c07565b61100e6080830185610f97565b61101b60a0830184610fb1565b979650505050505050565b7f48616e7961207065727573616861616e2079616e67206461706174206d656e675f8201527f616b7365732e0000000000000000000000000000000000000000000000000000602082015250565b5f611080602683610c20565b915061108b82611026565b604082019050919050565b5f6020820190508181035f8301526110ad81611074565b9050919050565b7f506f6c69637920746964616b20646974656d756b616e2e0000000000000000005f82015250565b5f6110e8601783610c20565b91506110f3826110b4565b602082019050919050565b5f6020820190508181035f830152611115816110dc565b9050919050565b5f60408201905061112f5f830185610c07565b61113c6020830184610f97565b9392505050565b7f4e487b71000000000000000000000000000000000000000000000000000000005f52602260045260245ffd5b5f600282049050600182168061118757607f821691505b60208210810361119a57611199611143565b5b50919050565b7f506f6c696379207375646168206164612e0000000000000000000000000000005f82015250565b5f6111d4601183610c20565b91506111df826111a0565b602082019050919050565b5f6020820190508181035f830152611201816111c8565b9050919050565b5f819050815f5260205f209050919050565b5f6020601f8301049050919050565b5f82821b905092915050565b5f600883026112647fffffffffffffffffffffffffffffffffffffffffffffffffffffffffffffffff82611229565b61126e8683611229565b95508019841693508086168417925050509392505050565b5f819050919050565b5f6112a96112a461129f84610ba9565b611286565b610ba9565b9050919050565b5f819050919050565b6112c28361128f565b6112d66112ce826112b0565b848454611235565b825550505050565b5f5f905090565b6112ed6112de565b6112f88184846112b9565b505050565b5f5b8281101561131e576113135f8284016112e5565b6001810190506112ff565b505050565b601f82111561137157828211156113705761133d81611208565b6113468361121a565b61134f8561121a565b602086101561135c575f90505b80830161136b828403826112fd565b505050505b5b505050565b5f82821c905092915050565b5f6113915f1984600802611376565b1980831691505092915050565b5f6113a98383611382565b9150826002028217905092915050565b6113c282610c16565b67ffffffffffffffff8111156113db576113da610d4c565b5b6113e58254611170565b6113f0828285611323565b5f60209050601f831160018114611421575f841561140f578287015190505b611419858261139e565b865550611480565b601f19841661142f86611208565b5f5b8281101561145657848901518255600182019150602085019450602081019050611431565b86831015611473578489015161146f601f891682611382565b8355505b6001600288020188555050505b505050505050565b5f60608201905061149b5f830186610c07565b81810360208301526114ad8185610c4e565b90506114bc6040830184610cb6565b94935050505056fea2646970667358221220035e3b2f0b57a939e60e5f26abfe16cdd45c2c6b28a4386f11bad3acba5f073964736f6c63430008220033",
					"opcodes": "PUSH1 0x80 PUSH1 0x40 MSTORE CALLVALUE DUP1 ISZERO PUSH1 0xE JUMPI PUSH0 PUSH0 REVERT JUMPDEST POP CALLER PUSH0 PUSH0 PUSH2 0x100 EXP DUP2 SLOAD DUP2 PUSH20 0xFFFFFFFFFFFFFFFFFFFFFFFFFFFFFFFFFFFFFFFF MUL NOT AND SWAP1 DUP4 PUSH20 0xFFFFFFFFFFFFFFFFFFFFFFFFFFFFFFFFFFFFFFFF AND MUL OR SWAP1 SSTORE POP PUSH2 0x14FA DUP1 PUSH2 0x5B PUSH0 CODECOPY PUSH0 RETURN INVALID PUSH1 0x80 PUSH1 0x40 MSTORE CALLVALUE DUP1 ISZERO PUSH2 0xF JUMPI PUSH0 PUSH0 REVERT JUMPDEST POP PUSH1 0x4 CALLDATASIZE LT PUSH2 0x7B JUMPI PUSH0 CALLDATALOAD PUSH1 0xE0 SHR DUP1 PUSH4 0x44ADA305 GT PUSH2 0x59 JUMPI DUP1 PUSH4 0x44ADA305 EQ PUSH2 0xEB JUMPI DUP1 PUSH4 0x594B03BA EQ PUSH2 0x11B JUMPI DUP1 PUSH4 0x8DA5CB5B EQ PUSH2 0x137 JUMPI DUP1 PUSH4 0xD3E89483 EQ PUSH2 0x155 JUMPI PUSH2 0x7B JUMP JUMPDEST DUP1 PUSH4 0x6F8CC0C EQ PUSH2 0x7F JUMPI DUP1 PUSH4 0x2B07FCE3 EQ PUSH2 0x9B JUMPI DUP1 PUSH4 0x32B7860D EQ PUSH2 0xCF JUMPI JUMPDEST PUSH0 PUSH0 REVERT JUMPDEST PUSH2 0x99 PUSH1 0x4 DUP1 CALLDATASIZE SUB DUP2 ADD SWAP1 PUSH2 0x94 SWAP2 SWAP1 PUSH2 0xBDC JUMP JUMPDEST PUSH2 0x18A JUMP JUMPDEST STOP JUMPDEST PUSH2 0xB5 PUSH1 0x4 DUP1 CALLDATASIZE SUB DUP2 ADD SWAP1 PUSH2 0xB0 SWAP2 SWAP1 PUSH2 0xBDC JUMP JUMPDEST PUSH2 0x2F1 JUMP JUMPDEST PUSH1 0x40 MLOAD PUSH2 0xC6 SWAP6 SWAP5 SWAP4 SWAP3 SWAP2 SWAP1 PUSH2 0xCC5 JUMP JUMPDEST PUSH1 0x40 MLOAD DUP1 SWAP2 SUB SWAP1 RETURN JUMPDEST PUSH2 0xE9 PUSH1 0x4 DUP1 CALLDATASIZE SUB DUP2 ADD SWAP1 PUSH2 0xE4 SWAP2 SWAP1 PUSH2 0xBDC JUMP JUMPDEST PUSH2 0x595 JUMP JUMPDEST STOP JUMPDEST PUSH2 0x105 PUSH1 0x4 DUP1 CALLDATASIZE SUB DUP2 ADD SWAP1 PUSH2 0x100 SWAP2 SWAP1 PUSH2 0xBDC JUMP JUMPDEST PUSH2 0x6FB JUMP JUMPDEST PUSH1 0x40 MLOAD PUSH2 0x112 SWAP2 SWAP1 PUSH2 0xD24 JUMP JUMPDEST PUSH1 0x40 MLOAD DUP1 SWAP2 SUB SWAP1 RETURN JUMPDEST PUSH2 0x135 PUSH1 0x4 DUP1 CALLDATASIZE SUB DUP2 ADD SWAP1 PUSH2 0x130 SWAP2 SWAP1 PUSH2 0xE9A JUMP JUMPDEST PUSH2 0x824 JUMP JUMPDEST STOP JUMPDEST PUSH2 0x13F PUSH2 0xA7E JUMP JUMPDEST PUSH1 0x40 MLOAD PUSH2 0x14C SWAP2 SWAP1 PUSH2 0xF1A JUMP JUMPDEST PUSH1 0x40 MLOAD DUP1 SWAP2 SUB SWAP1 RETURN JUMPDEST PUSH2 0x16F PUSH1 0x4 DUP1 CALLDATASIZE SUB DUP2 ADD SWAP1 PUSH2 0x16A SWAP2 SWAP1 PUSH2 0xBDC JUMP JUMPDEST PUSH2 0xAA2 JUMP JUMPDEST PUSH1 0x40 MLOAD PUSH2 0x181 SWAP7 SWAP6 SWAP5 SWAP4 SWAP3 SWAP2 SWAP1 PUSH2 0xFC0 JUMP JUMPDEST PUSH1 0x40 MLOAD DUP1 SWAP2 SUB SWAP1 RETURN JUMPDEST PUSH0 PUSH0 SWAP1 SLOAD SWAP1 PUSH2 0x100 EXP SWAP1 DIV PUSH20 0xFFFFFFFFFFFFFFFFFFFFFFFFFFFFFFFFFFFFFFFF AND PUSH20 0xFFFFFFFFFFFFFFFFFFFFFFFFFFFFFFFFFFFFFFFF AND CALLER PUSH20 0xFFFFFFFFFFFFFFFFFFFFFFFFFFFFFFFFFFFFFFFF AND EQ PUSH2 0x218 JUMPI PUSH1 0x40 MLOAD PUSH32 0x8C379A000000000000000000000000000000000000000000000000000000000 DUP2 MSTORE PUSH1 0x4 ADD PUSH2 0x20F SWAP1 PUSH2 0x1096 JUMP JUMPDEST PUSH1 0x40 MLOAD DUP1 SWAP2 SUB SWAP1 REVERT JUMPDEST PUSH1 0x1 PUSH0 DUP3 DUP2 MSTORE PUSH1 0x20 ADD SWAP1 DUP2 MSTORE PUSH1 0x20 ADD PUSH0 KECCAK256 PUSH1 0x4 ADD PUSH1 0x1 SWAP1 SLOAD SWAP1 PUSH2 0x100 EXP SWAP1 DIV PUSH1 0xFF AND PUSH2 0x279 JUMPI PUSH1 0x40 MLOAD PUSH32 0x8C379A000000000000000000000000000000000000000000000000000000000 DUP2 MSTORE PUSH1 0x4 ADD PUSH2 0x270 SWAP1 PUSH2 0x10FE JUMP JUMPDEST PUSH1 0x40 MLOAD DUP1 SWAP2 SUB SWAP1 REVERT JUMPDEST PUSH1 0x1 DUP1 PUSH0 DUP4 DUP2 MSTORE PUSH1 0x20 ADD SWAP1 DUP2 MSTORE PUSH1 0x20 ADD PUSH0 KECCAK256 PUSH1 0x4 ADD PUSH0 PUSH2 0x100 EXP DUP2 SLOAD DUP2 PUSH1 0xFF MUL NOT AND SWAP1 DUP4 PUSH1 0x1 DUP2 GT ISZERO PUSH2 0x2AF JUMPI PUSH2 0x2AE PUSH2 0xF33 JUMP JUMPDEST JUMPDEST MUL OR SWAP1 SSTORE POP PUSH32 0x2DA7B23CA63C1EB969EEE5FAE4ACB98186ABECF5358B0354A82A5183EBCA6B2A DUP2 PUSH1 0x1 PUSH1 0x40 MLOAD PUSH2 0x2E6 SWAP3 SWAP2 SWAP1 PUSH2 0x111C JUMP JUMPDEST PUSH1 0x40 MLOAD DUP1 SWAP2 SUB SWAP1 LOG1 POP JUMP JUMPDEST PUSH0 PUSH1 0x60 PUSH0 PUSH0 PUSH1 0x60 PUSH1 0x1 PUSH0 DUP8 DUP2 MSTORE PUSH1 0x20 ADD SWAP1 DUP2 MSTORE PUSH1 0x20 ADD PUSH0 KECCAK256 PUSH1 0x4 ADD PUSH1 0x1 SWAP1 SLOAD SWAP1 PUSH2 0x100 EXP SWAP1 DIV PUSH1 0xFF AND PUSH2 0x359 JUMPI PUSH1 0x40 MLOAD PUSH32 0x8C379A000000000000000000000000000000000000000000000000000000000 DUP2 MSTORE PUSH1 0x4 ADD PUSH2 0x350 SWAP1 PUSH2 0x10FE JUMP JUMPDEST PUSH1 0x40 MLOAD DUP1 SWAP2 SUB SWAP1 REVERT JUMPDEST PUSH0 PUSH1 0x1 PUSH0 DUP9 DUP2 MSTORE PUSH1 0x20 ADD SWAP1 DUP2 MSTORE PUSH1 0x20 ADD PUSH0 KECCAK256 PUSH1 0x40 MLOAD DUP1 PUSH1 0xC0 ADD PUSH1 0x40 MSTORE SWAP1 DUP2 PUSH0 DUP3 ADD SLOAD DUP2 MSTORE PUSH1 0x20 ADD PUSH1 0x1 DUP3 ADD DUP1 SLOAD PUSH2 0x38F SWAP1 PUSH2 0x1170 JUMP JUMPDEST DUP1 PUSH1 0x1F ADD PUSH1 0x20 DUP1 SWAP2 DIV MUL PUSH1 0x20 ADD PUSH1 0x40 MLOAD SWAP1 DUP2 ADD PUSH1 0x40 MSTORE DUP1 SWAP3 SWAP2 SWAP1 DUP2 DUP2 MSTORE PUSH1 0x20 ADD DUP3 DUP1 SLOAD PUSH2 0x3BB SWAP1 PUSH2 0x1170 JUMP JUMPDEST DUP1 ISZERO PUSH2 0x406 JUMPI DUP1 PUSH1 0x1F LT PUSH2 0x3DD JUMPI PUSH2 0x100 DUP1 DUP4 SLOAD DIV MUL DUP4 MSTORE SWAP2 PUSH1 0x20 ADD SWAP2 PUSH2 0x406 JUMP JUMPDEST DUP3 ADD SWAP2 SWAP1 PUSH0 MSTORE PUSH1 0x20 PUSH0 KECCAK256 SWAP1 JUMPDEST DUP2 SLOAD DUP2 MSTORE SWAP1 PUSH1 0x1 ADD SWAP1 PUSH1 0x20 ADD DUP1 DUP4 GT PUSH2 0x3E9 JUMPI DUP3 SWAP1 SUB PUSH1 0x1F AND DUP3 ADD SWAP2 JUMPDEST POP POP POP POP POP DUP2 MSTORE PUSH1 0x20 ADD PUSH1 0x2 DUP3 ADD PUSH0 SWAP1 SLOAD SWAP1 PUSH2 0x100 EXP SWAP1 DIV PUSH20 0xFFFFFFFFFFFFFFFFFFFFFFFFFFFFFFFFFFFFFFFF AND PUSH20 0xFFFFFFFFFFFFFFFFFFFFFFFFFFFFFFFFFFFFFFFF AND PUSH20 0xFFFFFFFFFFFFFFFFFFFFFFFFFFFFFFFFFFFFFFFF AND DUP2 MSTORE PUSH1 0x20 ADD PUSH1 0x3 DUP3 ADD SLOAD DUP2 MSTORE PUSH1 0x20 ADD PUSH1 0x4 DUP3 ADD PUSH0 SWAP1 SLOAD SWAP1 PUSH2 0x100 EXP SWAP1 DIV PUSH1 0xFF AND PUSH1 0x1 DUP2 GT ISZERO PUSH2 0x492 JUMPI PUSH2 0x491 PUSH2 0xF33 JUMP JUMPDEST JUMPDEST PUSH1 0x1 DUP2 GT ISZERO PUSH2 0x4A4 JUMPI PUSH2 0x4A3 PUSH2 0xF33 JUMP JUMPDEST JUMPDEST DUP2 MSTORE PUSH1 0x20 ADD PUSH1 0x4 DUP3 ADD PUSH1 0x1 SWAP1 SLOAD SWAP1 PUSH2 0x100 EXP SWAP1 DIV PUSH1 0xFF AND ISZERO ISZERO ISZERO ISZERO DUP2 MSTORE POP POP SWAP1 POP PUSH1 0x60 PUSH0 PUSH1 0x1 DUP2 GT ISZERO PUSH2 0x4DA JUMPI PUSH2 0x4D9 PUSH2 0xF33 JUMP JUMPDEST JUMPDEST DUP3 PUSH1 0x80 ADD MLOAD PUSH1 0x1 DUP2 GT ISZERO PUSH2 0x4F1 JUMPI PUSH2 0x4F0 PUSH2 0xF33 JUMP JUMPDEST JUMPDEST SUB PUSH2 0x533 JUMPI PUSH1 0x40 MLOAD DUP1 PUSH1 0x40 ADD PUSH1 0x40 MSTORE DUP1 PUSH1 0x5 DUP2 MSTORE PUSH1 0x20 ADD PUSH32 0x416B746966000000000000000000000000000000000000000000000000000000 DUP2 MSTORE POP SWAP1 POP PUSH2 0x56C JUMP JUMPDEST PUSH1 0x40 MLOAD DUP1 PUSH1 0x40 ADD PUSH1 0x40 MSTORE DUP1 PUSH1 0x4 DUP2 MSTORE PUSH1 0x20 ADD PUSH32 0x4361697200000000000000000000000000000000000000000000000000000000 DUP2 MSTORE POP SWAP1 POP JUMPDEST DUP2 PUSH0 ADD MLOAD DUP3 PUSH1 0x20 ADD MLOAD DUP4 PUSH1 0x40 ADD MLOAD DUP5 PUSH1 0x60 ADD MLOAD DUP5 SWAP7 POP SWAP7 POP SWAP7 POP SWAP7 POP SWAP7 POP POP POP SWAP2 SWAP4 SWAP6 SWAP1 SWAP3 SWAP5 POP JUMP JUMPDEST PUSH0 PUSH0 SWAP1 SLOAD SWAP1 PUSH2 0x100 EXP SWAP1 DIV PUSH20 0xFFFFFFFFFFFFFFFFFFFFFFFFFFFFFFFFFFFFFFFF AND PUSH20 0xFFFFFFFFFFFFFFFFFFFFFFFFFFFFFFFFFFFFFFFF AND CALLER PUSH20 0xFFFFFFFFFFFFFFFFFFFFFFFFFFFFFFFFFFFFFFFF AND EQ PUSH2 0x623 JUMPI PUSH1 0x40 MLOAD PUSH32 0x8C379A000000000000000000000000000000000000000000000000000000000 DUP2 MSTORE PUSH1 0x4 ADD PUSH2 0x61A SWAP1 PUSH2 0x1096 JUMP JUMPDEST PUSH1 0x40 MLOAD DUP1 SWAP2 SUB SWAP1 REVERT JUMPDEST PUSH1 0x1 PUSH0 DUP3 DUP2 MSTORE PUSH1 0x20 ADD SWAP1 DUP2 MSTORE PUSH1 0x20 ADD PUSH0 KECCAK256 PUSH1 0x4 ADD PUSH1 0x1 SWAP1 SLOAD SWAP1 PUSH2 0x100 EXP SWAP1 DIV PUSH1 0xFF AND PUSH2 0x684 JUMPI PUSH1 0x40 MLOAD PUSH32 0x8C379A000000000000000000000000000000000000000000000000000000000 DUP2 MSTORE PUSH1 0x4 ADD PUSH2 0x67B SWAP1 PUSH2 0x10FE JUMP JUMPDEST PUSH1 0x40 MLOAD DUP1 SWAP2 SUB SWAP1 REVERT JUMPDEST PUSH0 PUSH1 0x1 PUSH0 DUP4 DUP2 MSTORE PUSH1 0x20 ADD SWAP1 DUP2 MSTORE PUSH1 0x20 ADD PUSH0 KECCAK256 PUSH1 0x4 ADD PUSH0 PUSH2 0x100 EXP DUP2 SLOAD DUP2 PUSH1 0xFF MUL NOT AND SWAP1 DUP4 PUSH1 0x1 DUP2 GT ISZERO PUSH2 0x6BA JUMPI PUSH2 0x6B9 PUSH2 0xF33 JUMP JUMPDEST JUMPDEST MUL OR SWAP1 SSTORE POP PUSH32 0x2DA7B23CA63C1EB969EEE5FAE4ACB98186ABECF5358B0354A82A5183EBCA6B2A DUP2 PUSH0 PUSH1 0x40 MLOAD PUSH2 0x6F0 SWAP3 SWAP2 SWAP1 PUSH2 0x111C JUMP JUMPDEST PUSH1 0x40 MLOAD DUP1 SWAP2 SUB SWAP1 LOG1 POP JUMP JUMPDEST PUSH1 0x60 PUSH1 0x1 PUSH0 DUP4 DUP2 MSTORE PUSH1 0x20 ADD SWAP1 DUP2 MSTORE PUSH1 0x20 ADD PUSH0 KECCAK256 PUSH1 0x4 ADD PUSH1 0x1 SWAP1 SLOAD SWAP1 PUSH2 0x100 EXP SWAP1 DIV PUSH1 0xFF AND PUSH2 0x75E JUMPI PUSH1 0x40 MLOAD PUSH32 0x8C379A000000000000000000000000000000000000000000000000000000000 DUP2 MSTORE PUSH1 0x4 ADD PUSH2 0x755 SWAP1 PUSH2 0x10FE JUMP JUMPDEST PUSH1 0x40 MLOAD DUP1 SWAP2 SUB SWAP1 REVERT JUMPDEST PUSH0 PUSH1 0x1 DUP2 GT ISZERO PUSH2 0x771 JUMPI PUSH2 0x770 PUSH2 0xF33 JUMP JUMPDEST JUMPDEST PUSH1 0x1 PUSH0 DUP5 DUP2 MSTORE PUSH1 0x20 ADD SWAP1 DUP2 MSTORE PUSH1 0x20 ADD PUSH0 KECCAK256 PUSH1 0x4 ADD PUSH0 SWAP1 SLOAD SWAP1 PUSH2 0x100 EXP SWAP1 DIV PUSH1 0xFF AND PUSH1 0x1 DUP2 GT ISZERO PUSH2 0x7A4 JUMPI PUSH2 0x7A3 PUSH2 0xF33 JUMP JUMPDEST JUMPDEST SUB PUSH2 0x7E6 JUMPI PUSH1 0x40 MLOAD DUP1 PUSH1 0x40 ADD PUSH1 0x40 MSTORE DUP1 PUSH1 0x5 DUP2 MSTORE PUSH1 0x20 ADD PUSH32 0x416B746966000000000000000000000000000000000000000000000000000000 DUP2 MSTORE POP SWAP1 POP PUSH2 0x81F JUMP JUMPDEST PUSH1 0x40 MLOAD DUP1 PUSH1 0x40 ADD PUSH1 0x40 MSTORE DUP1 PUSH1 0x4 DUP2 MSTORE PUSH1 0x20 ADD PUSH32 0x4361697200000000000000000000000000000000000000000000000000000000 DUP2 MSTORE POP SWAP1 POP JUMPDEST SWAP2 SWAP1 POP JUMP JUMPDEST PUSH0 PUSH0 SWAP1 SLOAD SWAP1 PUSH2 0x100 EXP SWAP1 DIV PUSH20 0xFFFFFFFFFFFFFFFFFFFFFFFFFFFFFFFFFFFFFFFF AND PUSH20 0xFFFFFFFFFFFFFFFFFFFFFFFFFFFFFFFFFFFFFFFF AND CALLER PUSH20 0xFFFFFFFFFFFFFFFFFFFFFFFFFFFFFFFFFFFFFFFF AND EQ PUSH2 0x8B2 JUMPI PUSH1 0x40 MLOAD PUSH32 0x8C379A000000000000000000000000000000000000000000000000000000000 DUP2 MSTORE PUSH1 0x4 ADD PUSH2 0x8A9 SWAP1 PUSH2 0x1096 JUMP JUMPDEST PUSH1 0x40 MLOAD DUP1 SWAP2 SUB SWAP1 REVERT JUMPDEST PUSH1 0x1 PUSH0 DUP6 DUP2 MSTORE PUSH1 0x20 ADD SWAP1 DUP2 MSTORE PUSH1 0x20 ADD PUSH0 KECCAK256 PUSH1 0x4 ADD PUSH1 0x1 SWAP1 SLOAD SWAP1 PUSH2 0x100 EXP SWAP1 DIV PUSH1 0xFF AND ISZERO PUSH2 0x914 JUMPI PUSH1 0x40 MLOAD PUSH32 0x8C379A000000000000000000000000000000000000000000000000000000000 DUP2 MSTORE PUSH1 0x4 ADD PUSH2 0x90B SWAP1 PUSH2 0x11EA JUMP JUMPDEST PUSH1 0x40 MLOAD DUP1 SWAP2 SUB SWAP1 REVERT JUMPDEST PUSH1 0x40 MLOAD DUP1 PUSH1 0xC0 ADD PUSH1 0x40 MSTORE DUP1 DUP6 DUP2 MSTORE PUSH1 0x20 ADD DUP5 DUP2 MSTORE PUSH1 0x20 ADD DUP4 PUSH20 0xFFFFFFFFFFFFFFFFFFFFFFFFFFFFFFFFFFFFFFFF AND DUP2 MSTORE PUSH1 0x20 ADD DUP3 DUP2 MSTORE PUSH1 0x20 ADD PUSH0 PUSH1 0x1 DUP2 GT ISZERO PUSH2 0x960 JUMPI PUSH2 0x95F PUSH2 0xF33 JUMP JUMPDEST JUMPDEST DUP2 MSTORE PUSH1 0x20 ADD PUSH1 0x1 ISZERO ISZERO DUP2 MSTORE POP PUSH1 0x1 PUSH0 DUP7 DUP2 MSTORE PUSH1 0x20 ADD SWAP1 DUP2 MSTORE PUSH1 0x20 ADD PUSH0 KECCAK256 PUSH0 DUP3 ADD MLOAD DUP2 PUSH0 ADD SSTORE PUSH1 0x20 DUP3 ADD MLOAD DUP2 PUSH1 0x1 ADD SWAP1 DUP2 PUSH2 0x99A SWAP2 SWAP1 PUSH2 0x13B9 JUMP JUMPDEST POP PUSH1 0x40 DUP3 ADD MLOAD DUP2 PUSH1 0x2 ADD PUSH0 PUSH2 0x100 EXP DUP2 SLOAD DUP2 PUSH20 0xFFFFFFFFFFFFFFFFFFFFFFFFFFFFFFFFFFFFFFFF MUL NOT AND SWAP1 DUP4 PUSH20 0xFFFFFFFFFFFFFFFFFFFFFFFFFFFFFFFFFFFFFFFF AND MUL OR SWAP1 SSTORE POP PUSH1 0x60 DUP3 ADD MLOAD DUP2 PUSH1 0x3 ADD SSTORE PUSH1 0x80 DUP3 ADD MLOAD DUP2 PUSH1 0x4 ADD PUSH0 PUSH2 0x100 EXP DUP2 SLOAD DUP2 PUSH1 0xFF MUL NOT AND SWAP1 DUP4 PUSH1 0x1 DUP2 GT ISZERO PUSH2 0xA15 JUMPI PUSH2 0xA14 PUSH2 0xF33 JUMP JUMPDEST JUMPDEST MUL OR SWAP1 SSTORE POP PUSH1 0xA0 DUP3 ADD MLOAD DUP2 PUSH1 0x4 ADD PUSH1 0x1 PUSH2 0x100 EXP DUP2 SLOAD DUP2 PUSH1 0xFF MUL NOT AND SWAP1 DUP4 ISZERO ISZERO MUL OR SWAP1 SSTORE POP SWAP1 POP POP PUSH32 0xE060903A71989416DB77650C9585ADBAE8F4FC8633A778A547D25E3C78789F4C DUP5 DUP5 DUP5 PUSH1 0x40 MLOAD PUSH2 0xA70 SWAP4 SWAP3 SWAP2 SWAP1 PUSH2 0x1488 JUMP JUMPDEST PUSH1 0x40 MLOAD DUP1 SWAP2 SUB SWAP1 LOG1 POP POP POP POP JUMP JUMPDEST PUSH0 PUSH0 SWAP1 SLOAD SWAP1 PUSH2 0x100 EXP SWAP1 DIV PUSH20 0xFFFFFFFFFFFFFFFFFFFFFFFFFFFFFFFFFFFFFFFF AND DUP2 JUMP JUMPDEST PUSH1 0x1 PUSH1 0x20 MSTORE DUP1 PUSH0 MSTORE PUSH1 0x40 PUSH0 KECCAK256 PUSH0 SWAP2 POP SWAP1 POP DUP1 PUSH0 ADD SLOAD SWAP1 DUP1 PUSH1 0x1 ADD DUP1 SLOAD PUSH2 0xAC7 SWAP1 PUSH2 0x1170 JUMP JUMPDEST DUP1 PUSH1 0x1F ADD PUSH1 0x20 DUP1 SWAP2 DIV MUL PUSH1 0x20 ADD PUSH1 0x40 MLOAD SWAP1 DUP2 ADD PUSH1 0x40 MSTORE DUP1 SWAP3 SWAP2 SWAP1 DUP2 DUP2 MSTORE PUSH1 0x20 ADD DUP3 DUP1 SLOAD PUSH2 0xAF3 SWAP1 PUSH2 0x1170 JUMP JUMPDEST DUP1 ISZERO PUSH2 0xB3E JUMPI DUP1 PUSH1 0x1F LT PUSH2 0xB15 JUMPI PUSH2 0x100 DUP1 DUP4 SLOAD DIV MUL DUP4 MSTORE SWAP2 PUSH1 0x20 ADD SWAP2 PUSH2 0xB3E JUMP JUMPDEST DUP3 ADD SWAP2 SWAP1 PUSH0 MSTORE PUSH1 0x20 PUSH0 KECCAK256 SWAP1 JUMPDEST DUP2 SLOAD DUP2 MSTORE SWAP1 PUSH1 0x1 ADD SWAP1 PUSH1 0x20 ADD DUP1 DUP4 GT PUSH2 0xB21 JUMPI DUP3 SWAP1 SUB PUSH1 0x1F AND DUP3 ADD SWAP2 JUMPDEST POP POP POP POP POP SWAP1 DUP1 PUSH1 0x2 ADD PUSH0 SWAP1 SLOAD SWAP1 PUSH2 0x100 EXP SWAP1 DIV PUSH20 0xFFFFFFFFFFFFFFFFFFFFFFFFFFFFFFFFFFFFFFFF AND SWAP1 DUP1 PUSH1 0x3 ADD SLOAD SWAP1 DUP1 PUSH1 0x4 ADD PUSH0 SWAP1 SLOAD SWAP1 PUSH2 0x100 EXP SWAP1 DIV PUSH1 0xFF AND SWAP1 DUP1 PUSH1 0x4 ADD PUSH1 0x1 SWAP1 SLOAD SWAP1 PUSH2 0x100 EXP SWAP1 DIV PUSH1 0xFF AND SWAP1 POP DUP7 JUMP JUMPDEST PUSH0 PUSH1 0x40 MLOAD SWAP1 POP SWAP1 JUMP JUMPDEST PUSH0 PUSH0 REVERT JUMPDEST PUSH0 PUSH0 REVERT JUMPDEST PUSH0 DUP2 SWAP1 POP SWAP2 SWAP1 POP JUMP JUMPDEST PUSH2 0xBBB DUP2 PUSH2 0xBA9 JUMP JUMPDEST DUP2 EQ PUSH2 0xBC5 JUMPI PUSH0 PUSH0 REVERT JUMPDEST POP JUMP JUMPDEST PUSH0 DUP2 CALLDATALOAD SWAP1 POP PUSH2 0xBD6 DUP2 PUSH2 0xBB2 JUMP JUMPDEST SWAP3 SWAP2 POP POP JUMP JUMPDEST PUSH0 PUSH1 0x20 DUP3 DUP5 SUB SLT ISZERO PUSH2 0xBF1 JUMPI PUSH2 0xBF0 PUSH2 0xBA1 JUMP JUMPDEST JUMPDEST PUSH0 PUSH2 0xBFE DUP5 DUP3 DUP6 ADD PUSH2 0xBC8 JUMP JUMPDEST SWAP2 POP POP SWAP3 SWAP2 POP POP JUMP JUMPDEST PUSH2 0xC10 DUP2 PUSH2 0xBA9 JUMP JUMPDEST DUP3 MSTORE POP POP JUMP JUMPDEST PUSH0 DUP2 MLOAD SWAP1 POP SWAP2 SWAP1 POP JUMP JUMPDEST PUSH0 DUP3 DUP3 MSTORE PUSH1 0x20 DUP3 ADD SWAP1 POP SWAP3 SWAP2 POP POP JUMP JUMPDEST DUP3 DUP2 DUP4 MCOPY PUSH0 DUP4 DUP4 ADD MSTORE POP POP POP JUMP JUMPDEST PUSH0 PUSH1 0x1F NOT PUSH1 0x1F DUP4 ADD AND SWAP1 POP SWAP2 SWAP1 POP JUMP JUMPDEST PUSH0 PUSH2 0xC58 DUP3 PUSH2 0xC16 JUMP JUMPDEST PUSH2 0xC62 DUP2 DUP6 PUSH2 0xC20 JUMP JUMPDEST SWAP4 POP PUSH2 0xC72 DUP2 DUP6 PUSH1 0x20 DUP7 ADD PUSH2 0xC30 JUMP JUMPDEST PUSH2 0xC7B DUP2 PUSH2 0xC3E JUMP JUMPDEST DUP5 ADD SWAP2 POP POP SWAP3 SWAP2 POP POP JUMP JUMPDEST PUSH0 PUSH20 0xFFFFFFFFFFFFFFFFFFFFFFFFFFFFFFFFFFFFFFFF DUP3 AND SWAP1 POP SWAP2 SWAP1 POP JUMP JUMPDEST PUSH0 PUSH2 0xCAF DUP3 PUSH2 0xC86 JUMP JUMPDEST SWAP1 POP SWAP2 SWAP1 POP JUMP JUMPDEST PUSH2 0xCBF DUP2 PUSH2 0xCA5 JUMP JUMPDEST DUP3 MSTORE POP POP JUMP JUMPDEST PUSH0 PUSH1 0xA0 DUP3 ADD SWAP1 POP PUSH2 0xCD8 PUSH0 DUP4 ADD DUP9 PUSH2 0xC07 JUMP JUMPDEST DUP2 DUP2 SUB PUSH1 0x20 DUP4 ADD MSTORE PUSH2 0xCEA DUP2 DUP8 PUSH2 0xC4E JUMP JUMPDEST SWAP1 POP PUSH2 0xCF9 PUSH1 0x40 DUP4 ADD DUP7 PUSH2 0xCB6 JUMP JUMPDEST PUSH2 0xD06 PUSH1 0x60 DUP4 ADD DUP6 PUSH2 0xC07 JUMP JUMPDEST DUP2 DUP2 SUB PUSH1 0x80 DUP4 ADD MSTORE PUSH2 0xD18 DUP2 DUP5 PUSH2 0xC4E JUMP JUMPDEST SWAP1 POP SWAP7 SWAP6 POP POP POP POP POP POP JUMP JUMPDEST PUSH0 PUSH1 0x20 DUP3 ADD SWAP1 POP DUP2 DUP2 SUB PUSH0 DUP4 ADD MSTORE PUSH2 0xD3C DUP2 DUP5 PUSH2 0xC4E JUMP JUMPDEST SWAP1 POP SWAP3 SWAP2 POP POP JUMP JUMPDEST PUSH0 PUSH0 REVERT JUMPDEST PUSH0 PUSH0 REVERT JUMPDEST PUSH32 0x4E487B7100000000000000000000000000000000000000000000000000000000 PUSH0 MSTORE PUSH1 0x41 PUSH1 0x4 MSTORE PUSH1 0x24 PUSH0 REVERT JUMPDEST PUSH2 0xD82 DUP3 PUSH2 0xC3E JUMP JUMPDEST DUP2 ADD DUP2 DUP2 LT PUSH8 0xFFFFFFFFFFFFFFFF DUP3 GT OR ISZERO PUSH2 0xDA1 JUMPI PUSH2 0xDA0 PUSH2 0xD4C JUMP JUMPDEST JUMPDEST DUP1 PUSH1 0x40 MSTORE POP POP POP JUMP JUMPDEST PUSH0 PUSH2 0xDB3 PUSH2 0xB98 JUMP JUMPDEST SWAP1 POP PUSH2 0xDBF DUP3 DUP3 PUSH2 0xD79 JUMP JUMPDEST SWAP2 SWAP1 POP JUMP JUMPDEST PUSH0 PUSH8 0xFFFFFFFFFFFFFFFF DUP3 GT ISZERO PUSH2 0xDDE JUMPI PUSH2 0xDDD PUSH2 0xD4C JUMP JUMPDEST JUMPDEST PUSH2 0xDE7 DUP3 PUSH2 0xC3E JUMP JUMPDEST SWAP1 POP PUSH1 0x20 DUP2 ADD SWAP1 POP SWAP2 SWAP1 POP JUMP JUMPDEST DUP3 DUP2 DUP4 CALLDATACOPY PUSH0 DUP4 DUP4 ADD MSTORE POP POP POP JUMP JUMPDEST PUSH0 PUSH2 0xE14 PUSH2 0xE0F DUP5 PUSH2 0xDC4 JUMP JUMPDEST PUSH2 0xDAA JUMP JUMPDEST SWAP1 POP DUP3 DUP2 MSTORE PUSH1 0x20 DUP2 ADD DUP5 DUP5 DUP5 ADD GT ISZERO PUSH2 0xE30 JUMPI PUSH2 0xE2F PUSH2 0xD48 JUMP JUMPDEST JUMPDEST PUSH2 0xE3B DUP5 DUP3 DUP6 PUSH2 0xDF4 JUMP JUMPDEST POP SWAP4 SWAP3 POP POP POP JUMP JUMPDEST PUSH0 DUP3 PUSH1 0x1F DUP4 ADD SLT PUSH2 0xE57 JUMPI PUSH2 0xE56 PUSH2 0xD44 JUMP JUMPDEST JUMPDEST DUP2 CALLDATALOAD PUSH2 0xE67 DUP5 DUP3 PUSH1 0x20 DUP7 ADD PUSH2 0xE02 JUMP JUMPDEST SWAP2 POP POP SWAP3 SWAP2 POP POP JUMP JUMPDEST PUSH2 0xE79 DUP2 PUSH2 0xCA5 JUMP JUMPDEST DUP2 EQ PUSH2 0xE83 JUMPI PUSH0 PUSH0 REVERT JUMPDEST POP JUMP JUMPDEST PUSH0 DUP2 CALLDATALOAD SWAP1 POP PUSH2 0xE94 DUP2 PUSH2 0xE70 JUMP JUMPDEST SWAP3 SWAP2 POP POP JUMP JUMPDEST PUSH0 PUSH0 PUSH0 PUSH0 PUSH1 0x80 DUP6 DUP8 SUB SLT ISZERO PUSH2 0xEB2 JUMPI PUSH2 0xEB1 PUSH2 0xBA1 JUMP JUMPDEST JUMPDEST PUSH0 PUSH2 0xEBF DUP8 DUP3 DUP9 ADD PUSH2 0xBC8 JUMP JUMPDEST SWAP5 POP POP PUSH1 0x20 DUP6 ADD CALLDATALOAD PUSH8 0xFFFFFFFFFFFFFFFF DUP2 GT ISZERO PUSH2 0xEE0 JUMPI PUSH2 0xEDF PUSH2 0xBA5 JUMP JUMPDEST JUMPDEST PUSH2 0xEEC DUP8 DUP3 DUP9 ADD PUSH2 0xE43 JUMP JUMPDEST SWAP4 POP POP PUSH1 0x40 PUSH2 0xEFD DUP8 DUP3 DUP9 ADD PUSH2 0xE86 JUMP JUMPDEST SWAP3 POP POP PUSH1 0x60 PUSH2 0xF0E DUP8 DUP3 DUP9 ADD PUSH2 0xBC8 JUMP JUMPDEST SWAP2 POP POP SWAP3 SWAP6 SWAP2 SWAP5 POP SWAP3 POP JUMP JUMPDEST PUSH0 PUSH1 0x20 DUP3 ADD SWAP1 POP PUSH2 0xF2D PUSH0 DUP4 ADD DUP5 PUSH2 0xCB6 JUMP JUMPDEST SWAP3 SWAP2 POP POP JUMP JUMPDEST PUSH32 0x4E487B7100000000000000000000000000000000000000000000000000000000 PUSH0 MSTORE PUSH1 0x21 PUSH1 0x4 MSTORE PUSH1 0x24 PUSH0 REVERT JUMPDEST PUSH1 0x2 DUP2 LT PUSH2 0xF71 JUMPI PUSH2 0xF70 PUSH2 0xF33 JUMP JUMPDEST JUMPDEST POP JUMP JUMPDEST PUSH0 DUP2 SWAP1 POP PUSH2 0xF81 DUP3 PUSH2 0xF60 JUMP JUMPDEST SWAP2 SWAP1 POP JUMP JUMPDEST PUSH0 PUSH2 0xF90 DUP3 PUSH2 0xF74 JUMP JUMPDEST SWAP1 POP SWAP2 SWAP1 POP JUMP JUMPDEST PUSH2 0xFA0 DUP2 PUSH2 0xF86 JUMP JUMPDEST DUP3 MSTORE POP POP JUMP JUMPDEST PUSH0 DUP2 ISZERO ISZERO SWAP1 POP SWAP2 SWAP1 POP JUMP JUMPDEST PUSH2 0xFBA DUP2 PUSH2 0xFA6 JUMP JUMPDEST DUP3 MSTORE POP POP JUMP JUMPDEST PUSH0 PUSH1 0xC0 DUP3 ADD SWAP1 POP PUSH2 0xFD3 PUSH0 DUP4 ADD DUP10 PUSH2 0xC07 JUMP JUMPDEST DUP2 DUP2 SUB PUSH1 0x20 DUP4 ADD MSTORE PUSH2 0xFE5 DUP2 DUP9 PUSH2 0xC4E JUMP JUMPDEST SWAP1 POP PUSH2 0xFF4 PUSH1 0x40 DUP4 ADD DUP8 PUSH2 0xCB6 JUMP JUMPDEST PUSH2 0x1001 PUSH1 0x60 DUP4 ADD DUP7 PUSH2 0xC07 JUMP JUMPDEST PUSH2 0x100E PUSH1 0x80 DUP4 ADD DUP6 PUSH2 0xF97 JUMP JUMPDEST PUSH2 0x101B PUSH1 0xA0 DUP4 ADD DUP5 PUSH2 0xFB1 JUMP JUMPDEST SWAP8 SWAP7 POP POP POP POP POP POP POP JUMP JUMPDEST PUSH32 0x48616E7961207065727573616861616E2079616E67206461706174206D656E67 PUSH0 DUP3 ADD MSTORE PUSH32 0x616B7365732E0000000000000000000000000000000000000000000000000000 PUSH1 0x20 DUP3 ADD MSTORE POP JUMP JUMPDEST PUSH0 PUSH2 0x1080 PUSH1 0x26 DUP4 PUSH2 0xC20 JUMP JUMPDEST SWAP2 POP PUSH2 0x108B DUP3 PUSH2 0x1026 JUMP JUMPDEST PUSH1 0x40 DUP3 ADD SWAP1 POP SWAP2 SWAP1 POP JUMP JUMPDEST PUSH0 PUSH1 0x20 DUP3 ADD SWAP1 POP DUP2 DUP2 SUB PUSH0 DUP4 ADD MSTORE PUSH2 0x10AD DUP2 PUSH2 0x1074 JUMP JUMPDEST SWAP1 POP SWAP2 SWAP1 POP JUMP JUMPDEST PUSH32 0x506F6C69637920746964616B20646974656D756B616E2E000000000000000000 PUSH0 DUP3 ADD MSTORE POP JUMP JUMPDEST PUSH0 PUSH2 0x10E8 PUSH1 0x17 DUP4 PUSH2 0xC20 JUMP JUMPDEST SWAP2 POP PUSH2 0x10F3 DUP3 PUSH2 0x10B4 JUMP JUMPDEST PUSH1 0x20 DUP3 ADD SWAP1 POP SWAP2 SWAP1 POP JUMP JUMPDEST PUSH0 PUSH1 0x20 DUP3 ADD SWAP1 POP DUP2 DUP2 SUB PUSH0 DUP4 ADD MSTORE PUSH2 0x1115 DUP2 PUSH2 0x10DC JUMP JUMPDEST SWAP1 POP SWAP2 SWAP1 POP JUMP JUMPDEST PUSH0 PUSH1 0x40 DUP3 ADD SWAP1 POP PUSH2 0x112F PUSH0 DUP4 ADD DUP6 PUSH2 0xC07 JUMP JUMPDEST PUSH2 0x113C PUSH1 0x20 DUP4 ADD DUP5 PUSH2 0xF97 JUMP JUMPDEST SWAP4 SWAP3 POP POP POP JUMP JUMPDEST PUSH32 0x4E487B7100000000000000000000000000000000000000000000000000000000 PUSH0 MSTORE PUSH1 0x22 PUSH1 0x4 MSTORE PUSH1 0x24 PUSH0 REVERT JUMPDEST PUSH0 PUSH1 0x2 DUP3 DIV SWAP1 POP PUSH1 0x1 DUP3 AND DUP1 PUSH2 0x1187 JUMPI PUSH1 0x7F DUP3 AND SWAP2 POP JUMPDEST PUSH1 0x20 DUP3 LT DUP2 SUB PUSH2 0x119A JUMPI PUSH2 0x1199 PUSH2 0x1143 JUMP JUMPDEST JUMPDEST POP SWAP2 SWAP1 POP JUMP JUMPDEST PUSH32 0x506F6C696379207375646168206164612E000000000000000000000000000000 PUSH0 DUP3 ADD MSTORE POP JUMP JUMPDEST PUSH0 PUSH2 0x11D4 PUSH1 0x11 DUP4 PUSH2 0xC20 JUMP JUMPDEST SWAP2 POP PUSH2 0x11DF DUP3 PUSH2 0x11A0 JUMP JUMPDEST PUSH1 0x20 DUP3 ADD SWAP1 POP SWAP2 SWAP1 POP JUMP JUMPDEST PUSH0 PUSH1 0x20 DUP3 ADD SWAP1 POP DUP2 DUP2 SUB PUSH0 DUP4 ADD MSTORE PUSH2 0x1201 DUP2 PUSH2 0x11C8 JUMP JUMPDEST SWAP1 POP SWAP2 SWAP1 POP JUMP JUMPDEST PUSH0 DUP2 SWAP1 POP DUP2 PUSH0 MSTORE PUSH1 0x20 PUSH0 KECCAK256 SWAP1 POP SWAP2 SWAP1 POP JUMP JUMPDEST PUSH0 PUSH1 0x20 PUSH1 0x1F DUP4 ADD DIV SWAP1 POP SWAP2 SWAP1 POP JUMP JUMPDEST PUSH0 DUP3 DUP3 SHL SWAP1 POP SWAP3 SWAP2 POP POP JUMP JUMPDEST PUSH0 PUSH1 0x8 DUP4 MUL PUSH2 0x1264 PUSH32 0xFFFFFFFFFFFFFFFFFFFFFFFFFFFFFFFFFFFFFFFFFFFFFFFFFFFFFFFFFFFFFFFF DUP3 PUSH2 0x1229 JUMP JUMPDEST PUSH2 0x126E DUP7 DUP4 PUSH2 0x1229 JUMP JUMPDEST SWAP6 POP DUP1 NOT DUP5 AND SWAP4 POP DUP1 DUP7 AND DUP5 OR SWAP3 POP POP POP SWAP4 SWAP3 POP POP POP JUMP JUMPDEST PUSH0 DUP2 SWAP1 POP SWAP2 SWAP1 POP JUMP JUMPDEST PUSH0 PUSH2 0x12A9 PUSH2 0x12A4 PUSH2 0x129F DUP5 PUSH2 0xBA9 JUMP JUMPDEST PUSH2 0x1286 JUMP JUMPDEST PUSH2 0xBA9 JUMP JUMPDEST SWAP1 POP SWAP2 SWAP1 POP JUMP JUMPDEST PUSH0 DUP2 SWAP1 POP SWAP2 SWAP1 POP JUMP JUMPDEST PUSH2 0x12C2 DUP4 PUSH2 0x128F JUMP JUMPDEST PUSH2 0x12D6 PUSH2 0x12CE DUP3 PUSH2 0x12B0 JUMP JUMPDEST DUP5 DUP5 SLOAD PUSH2 0x1235 JUMP JUMPDEST DUP3 SSTORE POP POP POP POP JUMP JUMPDEST PUSH0 PUSH0 SWAP1 POP SWAP1 JUMP JUMPDEST PUSH2 0x12ED PUSH2 0x12DE JUMP JUMPDEST PUSH2 0x12F8 DUP2 DUP5 DUP5 PUSH2 0x12B9 JUMP JUMPDEST POP POP POP JUMP JUMPDEST PUSH0 JUMPDEST DUP3 DUP2 LT ISZERO PUSH2 0x131E JUMPI PUSH2 0x1313 PUSH0 DUP3 DUP5 ADD PUSH2 0x12E5 JUMP JUMPDEST PUSH1 0x1 DUP2 ADD SWAP1 POP PUSH2 0x12FF JUMP JUMPDEST POP POP POP JUMP JUMPDEST PUSH1 0x1F DUP3 GT ISZERO PUSH2 0x1371 JUMPI DUP3 DUP3 GT ISZERO PUSH2 0x1370 JUMPI PUSH2 0x133D DUP2 PUSH2 0x1208 JUMP JUMPDEST PUSH2 0x1346 DUP4 PUSH2 0x121A JUMP JUMPDEST PUSH2 0x134F DUP6 PUSH2 0x121A JUMP JUMPDEST PUSH1 0x20 DUP7 LT ISZERO PUSH2 0x135C JUMPI PUSH0 SWAP1 POP JUMPDEST DUP1 DUP4 ADD PUSH2 0x136B DUP3 DUP5 SUB DUP3 PUSH2 0x12FD JUMP JUMPDEST POP POP POP POP JUMPDEST JUMPDEST POP POP POP JUMP JUMPDEST PUSH0 DUP3 DUP3 SHR SWAP1 POP SWAP3 SWAP2 POP POP JUMP JUMPDEST PUSH0 PUSH2 0x1391 PUSH0 NOT DUP5 PUSH1 0x8 MUL PUSH2 0x1376 JUMP JUMPDEST NOT DUP1 DUP4 AND SWAP2 POP POP SWAP3 SWAP2 POP POP JUMP JUMPDEST PUSH0 PUSH2 0x13A9 DUP4 DUP4 PUSH2 0x1382 JUMP JUMPDEST SWAP2 POP DUP3 PUSH1 0x2 MUL DUP3 OR SWAP1 POP SWAP3 SWAP2 POP POP JUMP JUMPDEST PUSH2 0x13C2 DUP3 PUSH2 0xC16 JUMP JUMPDEST PUSH8 0xFFFFFFFFFFFFFFFF DUP2 GT ISZERO PUSH2 0x13DB JUMPI PUSH2 0x13DA PUSH2 0xD4C JUMP JUMPDEST JUMPDEST PUSH2 0x13E5 DUP3 SLOAD PUSH2 0x1170 JUMP JUMPDEST PUSH2 0x13F0 DUP3 DUP3 DUP6 PUSH2 0x1323 JUMP JUMPDEST PUSH0 PUSH1 0x20 SWAP1 POP PUSH1 0x1F DUP4 GT PUSH1 0x1 DUP2 EQ PUSH2 0x1421 JUMPI PUSH0 DUP5 ISZERO PUSH2 0x140F JUMPI DUP3 DUP8 ADD MLOAD SWAP1 POP JUMPDEST PUSH2 0x1419 DUP6 DUP3 PUSH2 0x139E JUMP JUMPDEST DUP7 SSTORE POP PUSH2 0x1480 JUMP JUMPDEST PUSH1 0x1F NOT DUP5 AND PUSH2 0x142F DUP7 PUSH2 0x1208 JUMP JUMPDEST PUSH0 JUMPDEST DUP3 DUP2 LT ISZERO PUSH2 0x1456 JUMPI DUP5 DUP10 ADD MLOAD DUP3 SSTORE PUSH1 0x1 DUP3 ADD SWAP2 POP PUSH1 0x20 DUP6 ADD SWAP5 POP PUSH1 0x20 DUP2 ADD SWAP1 POP PUSH2 0x1431 JUMP JUMPDEST DUP7 DUP4 LT ISZERO PUSH2 0x1473 JUMPI DUP5 DUP10 ADD MLOAD PUSH2 0x146F PUSH1 0x1F DUP10 AND DUP3 PUSH2 0x1382 JUMP JUMPDEST DUP4 SSTORE POP JUMPDEST PUSH1 0x1 PUSH1 0x2 DUP9 MUL ADD DUP9 SSTORE POP POP POP JUMPDEST POP POP POP POP POP POP JUMP JUMPDEST PUSH0 PUSH1 0x60 DUP3 ADD SWAP1 POP PUSH2 0x149B PUSH0 DUP4 ADD DUP7 PUSH2 0xC07 JUMP JUMPDEST DUP2 DUP2 SUB PUSH1 0x20 DUP4 ADD MSTORE PUSH2 0x14AD DUP2 DUP6 PUSH2 0xC4E JUMP JUMPDEST SWAP1 POP PUSH2 0x14BC PUSH1 0x40 DUP4 ADD DUP5 PUSH2 0xCB6 JUMP JUMPDEST SWAP5 SWAP4 POP POP POP POP JUMP INVALID LOG2 PUSH5 0x6970667358 0x22 SLT KECCAK256 SUB MCOPY EXTCODESIZE 0x2F SIGNEXTEND JUMPI 0xA9 CODECOPY DUPN 0xE PUSH0 0x26 0xAB INVALID AND 0xCD 0xD4 TLOAD 0x2C PUSH12 0x28A4386F11BAD3ACBA5F0739 PUSH5 0x736F6C6343 STOP ADDMOD 0x22 STOP CALLER "
				},
				"gasEstimates": {
					"creation": {
						"codeDepositCost": "1074000",
						"executionCost": "25376",
						"totalCost": "1099376"
					},
					"external": {
						"checkPolicyStatus(uint256)": "infinite",
						"createPolicy(uint256,string,address,uint256)": "infinite",
						"getPolicy(uint256)": "infinite",
						"owner()": "2551",
						"policies(uint256)": "infinite",
						"setPolicyActive(uint256)": "infinite",
						"setPolicyClaimed(uint256)": "infinite"
					}
				},
				"methodIdentifiers": {
					"checkPolicyStatus(uint256)": "44ada305",
					"createPolicy(uint256,string,address,uint256)": "594b03ba",
					"getPolicy(uint256)": "2b07fce3",
					"owner()": "8da5cb5b",
					"policies(uint256)": "d3e89483",
					"setPolicyActive(uint256)": "32b7860d",
					"setPolicyClaimed(uint256)": "06f8cc0c"
				}
			},
			"storageLayout": {
				"storage": [
					{
						"astId": 3,
						"contract": "contracts/StatusPolisAsuransi.sol:InsurancePolicy",
						"label": "owner",
						"offset": 0,
						"slot": "0",
						"type": "t_address"
					},
					{
						"astId": 46,
						"contract": "contracts/StatusPolisAsuransi.sol:InsurancePolicy",
						"label": "policies",
						"offset": 0,
						"slot": "1",
						"type": "t_mapping(t_uint256,t_struct(Policy)41_storage)"
					}
				],
				"types": {
					"t_address": {
						"encoding": "inplace",
						"label": "address",
						"numberOfBytes": "20"
					},
					"t_bool": {
						"encoding": "inplace",
						"label": "bool",
						"numberOfBytes": "1"
					},
					"t_enum(PolicyStatus)27": {
						"encoding": "inplace",
						"label": "enum InsurancePolicy.PolicyStatus",
						"numberOfBytes": "1"
					},
					"t_mapping(t_uint256,t_struct(Policy)41_storage)": {
						"encoding": "mapping",
						"key": "t_uint256",
						"label": "mapping(uint256 => struct InsurancePolicy.Policy)",
						"numberOfBytes": "32",
						"value": "t_struct(Policy)41_storage"
					},
					"t_string_storage": {
						"encoding": "bytes",
						"label": "string",
						"numberOfBytes": "32"
					},
					"t_struct(Policy)41_storage": {
						"encoding": "inplace",
						"label": "struct InsurancePolicy.Policy",
						"members": [
							{
								"astId": 29,
								"contract": "contracts/StatusPolisAsuransi.sol:InsurancePolicy",
								"label": "policyId",
								"offset": 0,
								"slot": "0",
								"type": "t_uint256"
							},
							{
								"astId": 31,
								"contract": "contracts/StatusPolisAsuransi.sol:InsurancePolicy",
								"label": "customerName",
								"offset": 0,
								"slot": "1",
								"type": "t_string_storage"
							},
							{
								"astId": 33,
								"contract": "contracts/StatusPolisAsuransi.sol:InsurancePolicy",
								"label": "customerAddress",
								"offset": 0,
								"slot": "2",
								"type": "t_address"
							},
							{
								"astId": 35,
								"contract": "contracts/StatusPolisAsuransi.sol:InsurancePolicy",
								"label": "premium",
								"offset": 0,
								"slot": "3",
								"type": "t_uint256"
							},
							{
								"astId": 38,
								"contract": "contracts/StatusPolisAsuransi.sol:InsurancePolicy",
								"label": "status",
								"offset": 0,
								"slot": "4",
								"type": "t_enum(PolicyStatus)27"
							},
							{
								"astId": 40,
								"contract": "contracts/StatusPolisAsuransi.sol:InsurancePolicy",
								"label": "exists",
								"offset": 1,
								"slot": "4",
								"type": "t_bool"
							}
						],
						"numberOfBytes": "160"
					},
					"t_uint256": {
						"encoding": "inplace",
						"label": "uint256",
						"numberOfBytes": "32"
					}
				}
			},
			"userdoc": {
				"kind": "user",
				"methods": {},
				"version": 1
			}
		}
	}
}